{
  "address": "0xab221c69D8EEcF6aC7944efD4589DA206AE1046C",
  "abi": [
    {
      "inputs": [
        {
          "internalType": "string",
          "name": "_name",
          "type": "string"
        },
        {
          "internalType": "string",
          "name": "_uri",
          "type": "string"
        },
        {
          "internalType": "string",
          "name": "_version",
          "type": "string"
        },
        {
          "internalType": "contract IERC20",
          "name": "_spn",
          "type": "address"
        },
        {
          "internalType": "address",
          "name": "_revenueAddress",
          "type": "address"
        },
        {
          "internalType": "address",
          "name": "_governance",
          "type": "address"
        }
      ],
      "stateMutability": "nonpayable",
      "type": "constructor"
    },
    {
      "anonymous": false,
      "inputs": [
        {
          "indexed": true,
          "internalType": "address",
          "name": "account",
          "type": "address"
        },
        {
          "indexed": true,
          "internalType": "address",
          "name": "operator",
          "type": "address"
        },
        {
          "indexed": false,
          "internalType": "bool",
          "name": "approved",
          "type": "bool"
        }
      ],
      "name": "ApprovalForAll",
      "type": "event"
    },
    {
      "anonymous": false,
      "inputs": [
        {
          "indexed": true,
          "internalType": "address",
          "name": "admin",
          "type": "address"
        },
        {
          "indexed": false,
          "internalType": "uint256",
          "name": "badgeId",
          "type": "uint256"
        }
      ],
      "name": "BadgeCreate",
      "type": "event"
    },
    {
      "anonymous": false,
      "inputs": [
        {
          "indexed": true,
          "internalType": "address",
          "name": "recipient",
          "type": "address"
        },
        {
          "indexed": false,
          "internalType": "uint256",
          "name": "badgeId",
          "type": "uint256"
        },
        {
          "indexed": false,
          "internalType": "uint256",
          "name": "amount",
          "type": "uint256"
        }
      ],
      "name": "BadgeGrant",
      "type": "event"
    },
    {
      "anonymous": false,
      "inputs": [
        {
          "indexed": true,
          "internalType": "address",
          "name": "recipient",
          "type": "address"
        },
        {
          "indexed": false,
          "internalType": "uint256",
          "name": "badgeId",
          "type": "uint256"
        },
        {
          "indexed": false,
          "internalType": "uint256",
          "name": "amount",
          "type": "uint256"
        }
      ],
      "name": "BadgePurchase",
      "type": "event"
    },
    {
      "anonymous": false,
      "inputs": [
        {
          "indexed": false,
          "internalType": "address",
          "name": "userAddress",
          "type": "address"
        },
        {
          "indexed": false,
          "internalType": "address payable",
          "name": "relayerAddress",
          "type": "address"
        },
        {
          "indexed": false,
          "internalType": "bytes",
          "name": "functionSignature",
          "type": "bytes"
        }
      ],
      "name": "MetaTransactionExecuted",
      "type": "event"
    },
    {
      "anonymous": false,
      "inputs": [
        {
          "indexed": true,
          "internalType": "address",
          "name": "previousOwner",
          "type": "address"
        },
        {
          "indexed": true,
          "internalType": "address",
          "name": "newOwner",
          "type": "address"
        }
      ],
      "name": "OwnershipTransferred",
      "type": "event"
    },
    {
      "anonymous": false,
      "inputs": [
        {
          "indexed": true,
          "internalType": "address",
          "name": "operator",
          "type": "address"
        },
        {
          "indexed": true,
          "internalType": "address",
          "name": "from",
          "type": "address"
        },
        {
          "indexed": true,
          "internalType": "address",
          "name": "to",
          "type": "address"
        },
        {
          "indexed": false,
          "internalType": "uint256[]",
          "name": "ids",
          "type": "uint256[]"
        },
        {
          "indexed": false,
          "internalType": "uint256[]",
          "name": "values",
          "type": "uint256[]"
        }
      ],
      "name": "TransferBatch",
      "type": "event"
    },
    {
      "anonymous": false,
      "inputs": [
        {
          "indexed": true,
          "internalType": "address",
          "name": "operator",
          "type": "address"
        },
        {
          "indexed": true,
          "internalType": "address",
          "name": "from",
          "type": "address"
        },
        {
          "indexed": true,
          "internalType": "address",
          "name": "to",
          "type": "address"
        },
        {
          "indexed": false,
          "internalType": "uint256",
          "name": "id",
          "type": "uint256"
        },
        {
          "indexed": false,
          "internalType": "uint256",
          "name": "value",
          "type": "uint256"
        }
      ],
      "name": "TransferSingle",
      "type": "event"
    },
    {
      "anonymous": false,
      "inputs": [
        {
          "indexed": false,
          "internalType": "string",
          "name": "value",
          "type": "string"
        },
        {
          "indexed": true,
          "internalType": "uint256",
          "name": "id",
          "type": "uint256"
        }
      ],
      "name": "URI",
      "type": "event"
    },
    {
      "inputs": [
        {
          "internalType": "uint256",
          "name": "_badgeId",
          "type": "uint256"
        }
      ],
      "name": "badgeAdminAddress",
      "outputs": [
        {
          "internalType": "address",
          "name": "",
          "type": "address"
        }
      ],
      "stateMutability": "view",
      "type": "function"
    },
    {
      "inputs": [
        {
          "internalType": "uint256",
          "name": "_badgeId",
          "type": "uint256"
        }
      ],
      "name": "badgePrice",
      "outputs": [
        {
          "internalType": "uint256",
          "name": "",
          "type": "uint256"
        }
      ],
      "stateMutability": "view",
      "type": "function"
    },
    {
      "inputs": [
        {
          "internalType": "address",
          "name": "account",
          "type": "address"
        },
        {
          "internalType": "uint256",
          "name": "id",
          "type": "uint256"
        }
      ],
      "name": "balanceOf",
      "outputs": [
        {
          "internalType": "uint256",
          "name": "",
          "type": "uint256"
        }
      ],
      "stateMutability": "view",
      "type": "function"
    },
    {
      "inputs": [
        {
          "internalType": "address[]",
          "name": "accounts",
          "type": "address[]"
        },
        {
          "internalType": "uint256[]",
          "name": "ids",
          "type": "uint256[]"
        }
      ],
      "name": "balanceOfBatch",
      "outputs": [
        {
          "internalType": "uint256[]",
          "name": "",
          "type": "uint256[]"
        }
      ],
      "stateMutability": "view",
      "type": "function"
    },
    {
      "inputs": [
        {
          "internalType": "address",
          "name": "_account",
          "type": "address"
        },
        {
          "internalType": "uint256",
          "name": "_id",
          "type": "uint256"
        },
        {
          "internalType": "uint256",
          "name": "_value",
          "type": "uint256"
        }
      ],
      "name": "burn",
      "outputs": [],
      "stateMutability": "nonpayable",
      "type": "function"
    },
    {
      "inputs": [
        {
          "internalType": "address",
          "name": "_account",
          "type": "address"
        },
        {
          "internalType": "uint256[]",
          "name": "_ids",
          "type": "uint256[]"
        },
        {
          "internalType": "uint256[]",
          "name": "_values",
          "type": "uint256[]"
        }
      ],
      "name": "burnBatch",
      "outputs": [],
      "stateMutability": "nonpayable",
      "type": "function"
    },
    {
      "inputs": [
        {
          "internalType": "address",
          "name": "_badgeAdmin",
          "type": "address"
        },
        {
          "internalType": "uint256",
          "name": "_price",
          "type": "uint256"
        }
      ],
      "name": "createBadge",
      "outputs": [
        {
          "internalType": "uint256",
          "name": "",
          "type": "uint256"
        }
      ],
      "stateMutability": "nonpayable",
      "type": "function"
    },
    {
      "inputs": [
        {
          "internalType": "uint256",
          "name": "_id",
          "type": "uint256"
        }
      ],
      "name": "creator",
      "outputs": [
        {
          "internalType": "address",
          "name": "",
          "type": "address"
        }
      ],
      "stateMutability": "view",
      "type": "function"
    },
    {
      "inputs": [
        {
          "internalType": "address",
          "name": "userAddress",
          "type": "address"
        },
        {
          "internalType": "bytes",
          "name": "functionSignature",
          "type": "bytes"
        },
        {
          "internalType": "bytes32",
          "name": "sigR",
          "type": "bytes32"
        },
        {
          "internalType": "bytes32",
          "name": "sigS",
          "type": "bytes32"
        },
        {
          "internalType": "uint8",
          "name": "sigV",
          "type": "uint8"
        }
      ],
      "name": "executeMetaTransaction",
      "outputs": [
        {
          "internalType": "bytes",
          "name": "",
          "type": "bytes"
        }
      ],
      "stateMutability": "payable",
      "type": "function"
    },
    {
      "inputs": [
        {
          "internalType": "uint256",
          "name": "_id",
          "type": "uint256"
        }
      ],
      "name": "exists",
      "outputs": [
        {
          "internalType": "bool",
          "name": "",
          "type": "bool"
        }
      ],
      "stateMutability": "view",
      "type": "function"
    },
    {
      "inputs": [
        {
          "internalType": "address",
          "name": "user",
          "type": "address"
        }
      ],
      "name": "getNonce",
      "outputs": [
        {
          "internalType": "uint256",
          "name": "nonce",
          "type": "uint256"
        }
      ],
      "stateMutability": "view",
      "type": "function"
    },
    {
      "inputs": [],
      "name": "governance",
      "outputs": [
        {
          "internalType": "address",
          "name": "",
          "type": "address"
        }
      ],
      "stateMutability": "view",
      "type": "function"
    },
    {
      "inputs": [
        {
          "internalType": "address",
          "name": "_to",
          "type": "address"
        },
        {
          "internalType": "uint256",
          "name": "_badgeId",
          "type": "uint256"
        },
        {
          "internalType": "uint256",
          "name": "_amount",
          "type": "uint256"
        }
      ],
      "name": "grantBadge",
      "outputs": [],
      "stateMutability": "nonpayable",
      "type": "function"
    },
    {
      "inputs": [
        {
          "internalType": "address",
          "name": "account",
          "type": "address"
        },
        {
          "internalType": "address",
          "name": "operator",
          "type": "address"
        }
      ],
      "name": "isApprovedForAll",
      "outputs": [
        {
          "internalType": "bool",
          "name": "",
          "type": "bool"
        }
      ],
      "stateMutability": "view",
      "type": "function"
    },
    {
      "inputs": [],
      "name": "owner",
      "outputs": [
        {
          "internalType": "address",
          "name": "",
          "type": "address"
        }
      ],
      "stateMutability": "view",
      "type": "function"
    },
    {
      "inputs": [],
      "name": "platformFee",
      "outputs": [
        {
          "internalType": "uint256",
          "name": "",
          "type": "uint256"
        }
      ],
      "stateMutability": "view",
      "type": "function"
    },
    {
      "inputs": [
        {
          "internalType": "uint256",
          "name": "_badgeId",
          "type": "uint256"
        },
        {
          "internalType": "uint256",
          "name": "_amount",
          "type": "uint256"
        }
      ],
      "name": "purchaseBadge",
      "outputs": [],
      "stateMutability": "nonpayable",
      "type": "function"
    },
    {
      "inputs": [
        {
          "internalType": "uint256[]",
          "name": "_badgeIds",
          "type": "uint256[]"
        },
        {
          "internalType": "uint256[]",
          "name": "_amounts",
          "type": "uint256[]"
        }
      ],
      "name": "purchaseBadgeBatch",
      "outputs": [],
      "stateMutability": "nonpayable",
      "type": "function"
    },
    {
      "inputs": [],
      "name": "renounceOwnership",
      "outputs": [],
      "stateMutability": "nonpayable",
      "type": "function"
    },
    {
      "inputs": [],
      "name": "revenueAddress",
      "outputs": [
        {
          "internalType": "address",
          "name": "",
          "type": "address"
        }
      ],
      "stateMutability": "view",
      "type": "function"
    },
    {
      "inputs": [
        {
          "internalType": "address",
          "name": "from",
          "type": "address"
        },
        {
          "internalType": "address",
          "name": "to",
          "type": "address"
        },
        {
          "internalType": "uint256[]",
          "name": "ids",
          "type": "uint256[]"
        },
        {
          "internalType": "uint256[]",
          "name": "amounts",
          "type": "uint256[]"
        },
        {
          "internalType": "bytes",
          "name": "data",
          "type": "bytes"
        }
      ],
      "name": "safeBatchTransferFrom",
      "outputs": [],
      "stateMutability": "nonpayable",
      "type": "function"
    },
    {
      "inputs": [
        {
          "internalType": "address",
          "name": "from",
          "type": "address"
        },
        {
          "internalType": "address",
          "name": "to",
          "type": "address"
        },
        {
          "internalType": "uint256",
          "name": "id",
          "type": "uint256"
        },
        {
          "internalType": "uint256",
          "name": "amount",
          "type": "uint256"
        },
        {
          "internalType": "bytes",
          "name": "data",
          "type": "bytes"
        }
      ],
      "name": "safeTransferFrom",
      "outputs": [],
      "stateMutability": "nonpayable",
      "type": "function"
    },
    {
      "inputs": [
        {
          "internalType": "address",
          "name": "operator",
          "type": "address"
        },
        {
          "internalType": "bool",
          "name": "approved",
          "type": "bool"
        }
      ],
      "name": "setApprovalForAll",
      "outputs": [],
      "stateMutability": "nonpayable",
      "type": "function"
    },
    {
      "inputs": [
        {
          "internalType": "address",
          "name": "_badgeAdmin",
          "type": "address"
        },
        {
          "internalType": "uint256",
          "name": "_badgeId",
          "type": "uint256"
        }
      ],
      "name": "setBadgeAdminAddress",
      "outputs": [],
      "stateMutability": "nonpayable",
      "type": "function"
    },
    {
      "inputs": [
        {
          "internalType": "uint256",
          "name": "_badgeId",
          "type": "uint256"
        },
        {
          "internalType": "uint256",
          "name": "_price",
          "type": "uint256"
        }
      ],
      "name": "setBadgePrice",
      "outputs": [],
      "stateMutability": "nonpayable",
      "type": "function"
    },
    {
      "inputs": [
        {
          "internalType": "address",
          "name": "_to",
          "type": "address"
        },
        {
          "internalType": "uint256",
          "name": "_id",
          "type": "uint256"
        }
      ],
      "name": "setCreator",
      "outputs": [],
      "stateMutability": "nonpayable",
      "type": "function"
    },
    {
      "inputs": [
        {
          "internalType": "address",
          "name": "_to",
          "type": "address"
        },
        {
          "internalType": "uint256[]",
          "name": "_ids",
          "type": "uint256[]"
        }
      ],
      "name": "setCreatorBatch",
      "outputs": [],
      "stateMutability": "nonpayable",
      "type": "function"
    },
    {
      "inputs": [
        {
          "internalType": "address",
          "name": "_governance",
          "type": "address"
        }
      ],
      "name": "setGovernance",
      "outputs": [],
      "stateMutability": "nonpayable",
      "type": "function"
    },
    {
      "inputs": [
        {
          "internalType": "uint256",
          "name": "_platformFee",
          "type": "uint256"
        }
      ],
      "name": "setPlatformFee",
      "outputs": [],
      "stateMutability": "nonpayable",
      "type": "function"
    },
    {
      "inputs": [
        {
          "internalType": "address",
          "name": "_revenueAddress",
          "type": "address"
        }
      ],
      "name": "setRevenueAddress",
      "outputs": [],
      "stateMutability": "nonpayable",
      "type": "function"
    },
    {
      "inputs": [],
      "name": "spn",
      "outputs": [
        {
          "internalType": "contract IERC20",
          "name": "",
          "type": "address"
        }
      ],
      "stateMutability": "view",
      "type": "function"
    },
    {
      "inputs": [
        {
          "internalType": "bytes4",
          "name": "interfaceId",
          "type": "bytes4"
        }
      ],
      "name": "supportsInterface",
      "outputs": [
        {
          "internalType": "bool",
          "name": "",
          "type": "bool"
        }
      ],
      "stateMutability": "view",
      "type": "function"
    },
    {
      "inputs": [
        {
          "internalType": "uint256",
          "name": "_id",
          "type": "uint256"
        }
      ],
      "name": "totalSupply",
      "outputs": [
        {
          "internalType": "uint256",
          "name": "",
          "type": "uint256"
        }
      ],
      "stateMutability": "view",
      "type": "function"
    },
    {
      "inputs": [
        {
          "internalType": "address",
          "name": "newOwner",
          "type": "address"
        }
      ],
      "name": "transferOwnership",
      "outputs": [],
      "stateMutability": "nonpayable",
      "type": "function"
    },
    {
      "inputs": [
        {
          "internalType": "uint256",
          "name": "",
          "type": "uint256"
        }
      ],
      "name": "uri",
      "outputs": [
        {
          "internalType": "string",
          "name": "",
          "type": "string"
        }
      ],
      "stateMutability": "view",
      "type": "function"
    }
  ],
  "transactionHash": "0xe3db56209d09b2b197787366026d29f25901f31791affdf3ff9ef457cab3592f",
  "args": [
    "Sapien Badge Store",
    "https://sapien.network/badges/{id}.json",
    "v3",
    "0x8174Ab11EEd70297311f7318a71d9e9f48466Fff",
    "0xeF60a8E421639Fc8A63b98118c5b780579b1009A",
    "0xeF60a8E421639Fc8A63b98118c5b780579b1009A"
  ],
  "solcInputHash": "99dc82327afda69a1cea79cfc7f737fd",
  "bytecode": "0x60806040526005600d553480156200001657600080fd5b5060405162003bee38038062003bee833981016040819052620000399162000300565b85858582818181856200004c8162000138565b50620000583362000151565b6040518060800160405280604f815260200162003b9f604f91398051906020012082805190602001208280519060200120306200009a620001a360201b60201c565b60408051602081019690965285019390935260608401919091526001600160a01b0316608083015260a082015260c00160408051808303601f190181529190528051602090910120600455505060016009555050600a80546001600160a01b03199081166001600160a01b0398891617909155600b80548216968816969096179095555050600c805490931691909316179055506200043a92505050565b80516200014d906002906020840190620001a7565b5050565b600380546001600160a01b038381166001600160a01b0319831681179093556040519116919082907f8be0079c531659141344cd1fd0a4f28419497f9722a3daafe3b4186f6b6457e090600090a35050565b4690565b828054620001b590620003ce565b90600052602060002090601f016020900481019282620001d9576000855562000224565b82601f10620001f457805160ff191683800117855562000224565b8280016001018555821562000224579182015b828111156200022457825182559160200191906001019062000207565b506200023292915062000236565b5090565b5b8082111562000232576000815560010162000237565b600082601f8301126200025e578081fd5b81516001600160401b03808211156200027b576200027b6200040b565b604051601f8301601f19908116603f01168101908282118183101715620002a657620002a66200040b565b81604052838152602092508683858801011115620002c2578485fd5b8491505b83821015620002e55785820183015181830184015290820190620002c6565b83821115620002f657848385830101525b9695505050505050565b60008060008060008060c0878903121562000319578182fd5b86516001600160401b038082111562000330578384fd5b6200033e8a838b016200024d565b9750602089015191508082111562000354578384fd5b620003628a838b016200024d565b9650604089015191508082111562000378578384fd5b506200038789828a016200024d565b94505060608701516200039a8162000421565b6080880151909350620003ad8162000421565b60a0880151909250620003c08162000421565b809150509295509295509295565b600181811c90821680620003e357607f821691505b602082108114156200040557634e487b7160e01b600052602260045260246000fd5b50919050565b634e487b7160e01b600052604160045260246000fd5b6001600160a01b03811681146200043757600080fd5b50565b613755806200044a6000396000f3fe6080604052600436106101c35760003560e01c8063715018a6116100f8578063c8cb8a7511610090578063c8cb8a751461056b578063cafb1eb71461058b578063d7763f84146105ab578063e4b845b5146105cb578063e985e9c5146105eb578063f242432a14610634578063f2fde38b14610654578063f5298aca14610674578063fa02ae3b1461069457600080fd5b8063715018a614610454578063808bbfd1146104695780638da5cb5b146104895780639d246cce1461049e578063a22cb465146104be578063ab033ea9146104de578063b410908d146104fe578063ba3655d01461051e578063bd85b0391461053e57600080fd5b80633b9ba4d41161016b5780633b9ba4d4146102f957806342f808951461031957806345338d63146103395780634e1273f4146103595780634f558e7914610386578063510b5158146103a6578063566486d9146103f45780635aa6e675146104145780636b20c4541461043457600080fd5b8062fdd58e146101c857806301ffc9a7146101fb5780630c53c51c1461022b5780630e89341c1461024b57806312e8e2c31461026b57806326232a2e1461028d5780632d0335ab146102a35780632eb2c2d6146102d9575b600080fd5b3480156101d457600080fd5b506101e86101e3366004612e1f565b6106b4565b6040519081526020015b60405180910390f35b34801561020757600080fd5b5061021b610216366004612f9f565b61074b565b60405190151581526020016101f2565b61023e610239366004612da7565b61079d565b6040516101f29190613215565b34801561025757600080fd5b5061023e610266366004612fd7565b610a14565b34801561027757600080fd5b5061028b610286366004612fd7565b610aa8565b005b34801561029957600080fd5b506101e8600d5481565b3480156102af57600080fd5b506101e86102be366004612b63565b6001600160a01b031660009081526005602052604090205490565b3480156102e557600080fd5b5061028b6102f4366004612baf565b610adc565b34801561030557600080fd5b5061028b610314366004613007565b610b73565b34801561032557600080fd5b5061028b610334366004612cb6565b610c3b565b34801561034557600080fd5b5061028b610354366004612b63565b610da4565b34801561036557600080fd5b50610379610374366004612e7a565b610e61565b6040516101f291906131dd565b34801561039257600080fd5b5061021b6103a1366004612fd7565b610fc2565b3480156103b257600080fd5b506103dc6103c1366004612fd7565b6000908152600760205260409020546001600160a01b031690565b6040516001600160a01b0390911681526020016101f2565b34801561040057600080fd5b50600a546103dc906001600160a01b031681565b34801561042057600080fd5b50600c546103dc906001600160a01b031681565b34801561044057600080fd5b5061028b61044f366004612d01565b610fdf565b34801561046057600080fd5b5061028b611084565b34801561047557600080fd5b506103dc610484366004612fd7565b6110bf565b34801561049557600080fd5b506103dc611108565b3480156104aa57600080fd5b506101e86104b9366004612e1f565b611117565b3480156104ca57600080fd5b5061028b6104d9366004612d71565b611220565b3480156104ea57600080fd5b5061028b6104f9366004612b63565b6112f7565b34801561050a57600080fd5b50600b546103dc906001600160a01b031681565b34801561052a57600080fd5b506101e8610539366004612fd7565b6113b0565b34801561054a57600080fd5b506101e8610559366004612fd7565b60009081526008602052604090205490565b34801561057757600080fd5b5061028b610586366004612e1f565b6113ef565b34801561059757600080fd5b5061028b6105a6366004612e1f565b6114b8565b3480156105b757600080fd5b5061028b6105c6366004612e48565b611570565b3480156105d757600080fd5b5061028b6105e6366004612f3a565b611770565b3480156105f757600080fd5b5061021b610606366004612b7d565b6001600160a01b03918216600090815260016020908152604080832093909416825291909152205460ff1690565b34801561064057600080fd5b5061028b61064f366004612c54565b611885565b34801561066057600080fd5b5061028b61066f366004612b63565b61190c565b34801561068057600080fd5b5061028b61068f366004612e48565b6119ac565b3480156106a057600080fd5b5061028b6106af366004613007565b611a4c565b60006001600160a01b0383166107255760405162461bcd60e51b815260206004820152602b60248201527f455243313135353a2062616c616e636520717565727920666f7220746865207a60448201526a65726f206164647265737360a81b60648201526084015b60405180910390fd5b506000908152602081815260408083206001600160a01b03949094168352929052205490565b60006001600160e01b03198216636cdb3d1360e11b148061077c57506001600160e01b031982166303a24d0760e21b145b8061079757506301ffc9a760e01b6001600160e01b03198316145b92915050565b606060006107aa86611b10565b90506000356001600160e01b031990811690821614156108325760405162461bcd60e51b815260206004820152603d60248201527f66756e6374696f6e5369676e61747572652063616e206e6f74206265206f662060448201527f657865637574654d6574615472616e73616374696f6e206d6574686f64000000606482015260840161071c565b604080516060810182526001600160a01b0389166000818152600560209081529084902054835282015290810187905261086f8882888888611b2c565b6108c55760405162461bcd60e51b815260206004820152602160248201527f5369676e657220616e64207369676e617475726520646f206e6f74206d6174636044820152600d60fb1b606482015260840161071c565b6001600160a01b0388166000908152600560205260409020546108e9906001611c08565b6001600160a01b038916600090815260056020908152604080832093909355915190918291309161091e918c918e91016130aa565b60408051601f19818403018152908290526109389161308e565b6000604051808303816000865af19150503d8060008114610975576040519150601f19603f3d011682016040523d82523d6000602084013e61097a565b606091505b5091509150816109cc5760405162461bcd60e51b815260206004820152601c60248201527f46756e6374696f6e2063616c6c206e6f74207375636365737366756c00000000604482015260640161071c565b7f5845892132946850460bff5a0083f71031bc5bf9aadcd40f1de79423eac9b10b8a338b6040516109ff939291906130e1565b60405180910390a19998505050505050505050565b606060028054610a2390613550565b80601f0160208091040260200160405190810160405280929190818152602001828054610a4f90613550565b8015610a9c5780601f10610a7157610100808354040283529160200191610a9c565b820191906000526020600020905b815481529060010190602001808311610a7f57829003601f168201915b50505050509050919050565b33610ab1611108565b6001600160a01b031614610ad75760405162461bcd60e51b815260040161071c906133db565b600d55565b6001600160a01b038516331480610af85750610af88533610606565b610b5f5760405162461bcd60e51b815260206004820152603260248201527f455243313135353a207472616e736665722063616c6c6572206973206e6f74206044820152711bdddb995c881b9bdc88185c1c1c9bdd995960721b606482015260840161071c565b610b6c8585858585611c14565b5050505050565b81610b7d81610fc2565b610b995760405162461bcd60e51b815260040161071c90613270565b60026009541415610bbc5760405162461bcd60e51b815260040161071c90613458565b600260095581610c1f5760405162461bcd60e51b815260206004820152602860248201527f426164676553746f726523707572636861736542616467653a20494e56414c496044820152671117d05353d5539560c21b606482015260840161071c565b610c31610c2a611dcc565b8484611e29565b5050600160095550565b33610c44611108565b6001600160a01b031614610c6a5760405162461bcd60e51b815260040161071c906133db565b6001600160a01b038216610cd95760405162461bcd60e51b815260206004820152603060248201527f455243313135355472616461626c652373657443726561746f7242617463683a60448201526f20494e56414c49445f4144445245535360801b606482015260840161071c565b60005b8151811015610d9f576000828281518110610d0757634e487b7160e01b600052603260045260246000fd5b60200260200101519050610d1a81610fc2565b610d825760405162461bcd60e51b815260206004820152603360248201527f455243313135355472616461626c652373657443726561746f7242617463683a604482015272102727a72fa2ac24a9aa22a72a2faa27a5a2a760691b606482015260840161071c565b610d8c84826120ef565b5080610d97816135b1565b915050610cdc565b505050565b33610dad611108565b6001600160a01b031614610dd35760405162461bcd60e51b815260040161071c906133db565b6001600160a01b038116610e3f5760405162461bcd60e51b815260206004820152602d60248201527f426164676553746f726523736574526576656e7565416464726573733a20494e60448201526c56414c49445f4144445245535360981b606482015260840161071c565b600b80546001600160a01b0319166001600160a01b0392909216919091179055565b60608151835114610ec65760405162461bcd60e51b815260206004820152602960248201527f455243313135353a206163636f756e747320616e6420696473206c656e677468604482015268040dad2e6dac2e8c6d60bb1b606482015260840161071c565b600083516001600160401b03811115610eef57634e487b7160e01b600052604160045260246000fd5b604051908082528060200260200182016040528015610f18578160200160208202803683370190505b50905060005b8451811015610fba57610f7f858281518110610f4a57634e487b7160e01b600052603260045260246000fd5b6020026020010151858381518110610f7257634e487b7160e01b600052603260045260246000fd5b60200260200101516106b4565b828281518110610f9f57634e487b7160e01b600052603260045260246000fd5b6020908102919091010152610fb3816135b1565b9050610f1e565b509392505050565b6000908152600760205260409020546001600160a01b0316151590565b610fe7611dcc565b6001600160a01b0316836001600160a01b0316148061100d575061100d83610606611dcc565b6110795760405162461bcd60e51b815260206004820152603760248201527f455243313135355472616461626c65236275726e42617463683a2043414c4c456044820152761497d393d7d3d5d3915497d393d497d054141493d59151604a1b606482015260840161071c565b610d9f83838361211d565b3361108d611108565b6001600160a01b0316146110b35760405162461bcd60e51b815260040161071c906133db565b6110bd60006122b5565b565b6000816110cb81610fc2565b6110e75760405162461bcd60e51b815260040161071c90613270565b6000838152600e60205260409020546001600160a01b031691505b50919050565b6003546001600160a01b031690565b600c546000906001600160a01b031661112e611dcc565b6001600160a01b0316146111995760405162461bcd60e51b815260206004820152602c60248201527f426164676553746f72652363726561746542616467653a2043414c4c45525f4e60448201526b4f5f474f5645524e414e434560a01b606482015260840161071c565b60006111b684600160405180602001604052806000815250612307565b9050836001600160a01b03167f701fca9fe1d09f8f50f9c6af29911d30ee0b35c4f4b8f6c138f73ab488e9525c826040516111f391815260200190565b60405180910390a26000818152600e602052604090206001018390556112198482612381565b9392505050565b336001600160a01b038316141561128b5760405162461bcd60e51b815260206004820152602960248201527f455243313135353a2073657474696e6720617070726f76616c20737461747573604482015268103337b91039b2b63360b91b606482015260840161071c565b3360008181526001602090815260408083206001600160a01b03871680855290835292819020805460ff191686151590811790915590519081529192917f17307eab39ab6107e8899845ad3d59bd9653f200f220920489ca2b5937696c31910160405180910390a35050565b33611300611108565b6001600160a01b0316146113265760405162461bcd60e51b815260040161071c906133db565b6001600160a01b03811661138e5760405162461bcd60e51b815260206004820152602960248201527f426164676553746f726523736574476f7665726e616e63653a20494e56414c49604482015268445f4144445245535360b81b606482015260840161071c565b600c80546001600160a01b0319166001600160a01b0392909216919091179055565b6000816113bc81610fc2565b6113d85760405162461bcd60e51b815260040161071c90613270565b50506000908152600e602052604090206001015490565b806113f981610fc2565b6114155760405162461bcd60e51b815260040161071c90613270565b3361141e611108565b6001600160a01b0316146114445760405162461bcd60e51b815260040161071c906133db565b6001600160a01b0383166114ae5760405162461bcd60e51b815260206004820152602b60248201527f455243313135355472616461626c652373657443726561746f723a20494e564160448201526a4c49445f4144445245535360a81b606482015260840161071c565b610d9f83836120ef565b806114c281610fc2565b6114de5760405162461bcd60e51b815260040161071c90613270565b600c546001600160a01b03166114f2611dcc565b6001600160a01b0316146115665760405162461bcd60e51b815260206004820152603560248201527f426164676553746f726523736574426164676541646d696e416464726573733a6044820152742043414c4c45525f4e4f5f474f5645524e414e434560581b606482015260840161071c565b610d9f8383612381565b8161157a81610fc2565b6115965760405162461bcd60e51b815260040161071c90613270565b600260095414156115b95760405162461bcd60e51b815260040161071c90613458565b60026009556115c7836110bf565b6001600160a01b03166115d8611dcc565b6001600160a01b0316146116435760405162461bcd60e51b815260206004820152602c60248201527f426164676553746f7265236772616e7442616467653a2043414c4c45525f4e4f60448201526b2fa120a223a2afa0a226a4a760a11b606482015260840161071c565b6001600160a01b0384166116a85760405162461bcd60e51b815260206004820152602660248201527f426164676553746f7265236772616e7442616467653a20494e56414c49445f4160448201526544445245535360d01b606482015260840161071c565b600082116117065760405162461bcd60e51b815260206004820152602560248201527f426164676553746f7265236772616e7442616467653a20494e56414c49445f416044820152641353d5539560da1b606482015260840161071c565b611721848484604051806020016040528060008152506123af565b60408051848152602081018490526001600160a01b038616917ff1179ee5b4df7a07f60b6537e15c07608e15b042ceb38e36fde2b52a70e37109910160405180910390a2505060016009555050565b600260095414156117935760405162461bcd60e51b815260040161071c90613458565b600260095580518251146118075760405162461bcd60e51b815260206004820152603560248201527f426164676553746f7265237075726368617365426164676542617463683a2050604482015274082a4829aa6be988a9c8ea890be9a92a69a82a8869605b1b606482015260840161071c565b60005b8251811015610c315761187361181e611dcc565b84838151811061183e57634e487b7160e01b600052603260045260246000fd5b602002602001015184848151811061186657634e487b7160e01b600052603260045260246000fd5b6020026020010151611e29565b8061187d816135b1565b91505061180a565b6001600160a01b0385163314806118a157506118a18533610606565b6118ff5760405162461bcd60e51b815260206004820152602960248201527f455243313135353a2063616c6c6572206973206e6f74206f776e6572206e6f7260448201526808185c1c1c9bdd995960ba1b606482015260840161071c565b610b6c8585858585612413565b33611915611108565b6001600160a01b03161461193b5760405162461bcd60e51b815260040161071c906133db565b6001600160a01b0381166119a05760405162461bcd60e51b815260206004820152602660248201527f4f776e61626c653a206e6577206f776e657220697320746865207a65726f206160448201526564647265737360d01b606482015260840161071c565b6119a9816122b5565b50565b6119b4611dcc565b6001600160a01b0316836001600160a01b031614806119da57506119da83610606611dcc565b611a415760405162461bcd60e51b815260206004820152603260248201527f455243313135355472616461626c65236275726e3a2043414c4c45525f4e4f5f60448201527113d5d3915497d393d497d054141493d5915160721b606482015260840161071c565b610d9f838383612527565b81611a5681610fc2565b611a725760405162461bcd60e51b815260040161071c90613270565b611a7b836110bf565b6001600160a01b0316611a8c611dcc565b6001600160a01b031614611afa5760405162461bcd60e51b815260206004820152602f60248201527f426164676553746f726523736574426164676550726963653a2043414c4c455260448201526e2fa727afa120a223a2afa0a226a4a760891b606482015260840161071c565b506000918252600e602052604090912060010155565b6000815160001415611b2457506000919050565b506020015190565b6000806001611b42611b3d88612617565b612694565b6040805160008152602081018083529290925260ff861690820152606081018790526080810186905260a0016020604051602081039080840390855afa158015611b90573d6000803e3d6000fd5b5050604051601f1901519150506001600160a01b038116611be75760405162461bcd60e51b8152602060048201526011602482015270496e76616c6964207369676e617475726560781b604482015260640161071c565b866001600160a01b0316816001600160a01b03161491505095945050505050565b600061121982846134b2565b8151835114611c355760405162461bcd60e51b815260040161071c90613410565b6001600160a01b038416611c5b5760405162461bcd60e51b815260040161071c90613309565b3360005b8451811015611d5e576000858281518110611c8a57634e487b7160e01b600052603260045260246000fd5b602002602001015190506000858381518110611cb657634e487b7160e01b600052603260045260246000fd5b602090810291909101810151600084815280835260408082206001600160a01b038e168352909352919091205490915081811015611d065760405162461bcd60e51b815260040161071c90613391565b6000838152602081815260408083206001600160a01b038e8116855292528083208585039055908b16825281208054849290611d439084906134b2565b9250508190555050505080611d57906135b1565b9050611c5f565b50846001600160a01b0316866001600160a01b0316826001600160a01b03167f4a39dc06d4c0dbc64b70af90fd698a233a518aa5d07e595d983b8c0526c8f7fb8787604051611dae9291906131f0565b60405180910390a4611dc48187878787876126c4565b505050505050565b600033301415611e2357600080368080601f0160208091040260200160405190810160405280939291908181526020018383808284376000920191909152505050503601516001600160a01b03169150611e269050565b50335b90565b6000828152600e60205260409020600101541561208b576000828152600e6020526040812060010154611e5c908361282f565b90506000611e806064611e7a600d548561282f90919063ffffffff16565b9061283b565b600a546040516370a0823160e01b81526001600160a01b0388811660048301529293508492909116906370a082319060240160206040518083038186803b158015611eca57600080fd5b505afa158015611ede573d6000803e3d6000fd5b505050506040513d601f19601f82011682018060405250810190611f029190612fef565b1015611f665760405162461bcd60e51b815260206004820152602d60248201527f426164676553746f7265235f707572636861736542616467653a20494e53554660448201526c46494349454e545f46554e445360981b606482015260840161071c565b600a54600b546040516323b872dd60e01b81526001600160a01b03928316926323b872dd92611f9f928a92909116908690600401613174565b602060405180830381600087803b158015611fb957600080fd5b505af1158015611fcd573d6000803e3d6000fd5b505050506040513d601f19601f82011682018060405250810190611ff19190612f83565b50600a546001600160a01b03166323b872dd8661200d876110bf565b6120178686612847565b6040518463ffffffff1660e01b815260040161203593929190613174565b602060405180830381600087803b15801561204f57600080fd5b505af1158015612063573d6000803e3d6000fd5b505050506040513d601f19601f820116820180604052508101906120879190612f83565b5050505b6120a6838383604051806020016040528060008152506123af565b60408051838152602081018390526001600160a01b038516917f6a86d8fb0fa4fa0f74c2f74f9b87d359e78289e71aa96936d78c18b95886d561910160405180910390a2505050565b600090815260076020526040902080546001600160a01b0319166001600160a01b0392909216919091179055565b6001600160a01b0383166121435760405162461bcd60e51b815260040161071c9061334e565b80518251146121645760405162461bcd60e51b815260040161071c90613410565b604080516020810190915260009081905233905b83518110156122565760008482815181106121a357634e487b7160e01b600052603260045260246000fd5b6020026020010151905060008483815181106121cf57634e487b7160e01b600052603260045260246000fd5b602090810291909101810151600084815280835260408082206001600160a01b038c16835290935291909120549091508181101561221f5760405162461bcd60e51b815260040161071c906132c5565b6000928352602083815260408085206001600160a01b038b168652909152909220910390558061224e816135b1565b915050612178565b5060006001600160a01b0316846001600160a01b0316826001600160a01b03167f4a39dc06d4c0dbc64b70af90fd698a233a518aa5d07e595d983b8c0526c8f7fb86866040516122a79291906131f0565b60405180910390a450505050565b600380546001600160a01b038381166001600160a01b0319831681179093556040519116919082907f8be0079c531659141344cd1fd0a4f28419497f9722a3daafe3b4186f6b6457e090600090a35050565b6000612317600680546001019055565b600061232260065490565b905061232c611dcc565b600082815260076020526040902080546001600160a01b0319166001600160a01b039283161790558516156123795761236785828686612853565b60008181526008602052604090208490555b949350505050565b6000908152600e6020526040902080546001600160a01b0319166001600160a01b0392909216919091179055565b826123b981610fc2565b6123d55760405162461bcd60e51b815260040161071c90613270565b6123e185858585612853565b6000848152600860205260409020546123fa9084611c08565b6000948552600860205260409094209390935550505050565b6001600160a01b0384166124395760405162461bcd60e51b815260040161071c90613309565b3361245281878761244988612942565b610b6c88612942565b6000848152602081815260408083206001600160a01b038a168452909152902054838110156124935760405162461bcd60e51b815260040161071c90613391565b6000858152602081815260408083206001600160a01b038b81168552925280832087850390559088168252812080548692906124d09084906134b2565b909155505060408051868152602081018690526001600160a01b03808916928a821692918616916000805160206136bd833981519152910160405180910390a461251e82888888888861299b565b50505050505050565b6001600160a01b03831661254d5760405162461bcd60e51b815260040161071c9061334e565b3361257d8185600061255e87612942565b61256787612942565b5050604080516020810190915260009052505050565b6000838152602081815260408083206001600160a01b0388168452909152902054828110156125be5760405162461bcd60e51b815260040161071c906132c5565b6000848152602081815260408083206001600160a01b03898116808652918452828520888703905582518981529384018890529092908616916000805160206136bd833981519152910160405180910390a45050505050565b60006040518060800160405280604381526020016136dd6043913980516020918201208351848301516040808701518051908601209051612677950193845260208401929092526001600160a01b03166040830152606082015260800190565b604051602081830303815290604052805190602001209050919050565b600061269f60045490565b60405161190160f01b6020820152602281019190915260428101839052606201612677565b6001600160a01b0384163b15611dc45760405163bc197c8160e01b81526001600160a01b0385169063bc197c81906127089089908990889088908890600401613116565b602060405180830381600087803b15801561272257600080fd5b505af1925050508015612752575060408051601f3d908101601f1916820190925261274f91810190612fbb565b60015b6127ff5761275e6135f8565b806308c379a01415612798575061277361360f565b8061277e575061279a565b8060405162461bcd60e51b815260040161071c9190613215565b505b60405162461bcd60e51b815260206004820152603460248201527f455243313135353a207472616e7366657220746f206e6f6e20455243313135356044820152732932b1b2b4bb32b91034b6b83632b6b2b73a32b960611b606482015260840161071c565b6001600160e01b0319811663bc197c8160e01b1461251e5760405162461bcd60e51b815260040161071c90613228565b600061121982846134ea565b600061121982846134ca565b60006112198284613509565b6001600160a01b0384166128b35760405162461bcd60e51b815260206004820152602160248201527f455243313135353a206d696e7420746f20746865207a65726f206164647265736044820152607360f81b606482015260840161071c565b336128c48160008761244988612942565b6000848152602081815260408083206001600160a01b0389168452909152812080548592906128f49084906134b2565b909155505060408051858152602081018590526001600160a01b0380881692600092918516916000805160206136bd833981519152910160405180910390a4610b6c8160008787878761299b565b6040805160018082528183019092526060916000919060208083019080368337019050509050828160008151811061298a57634e487b7160e01b600052603260045260246000fd5b602090810291909101015292915050565b6001600160a01b0384163b15611dc45760405163f23a6e6160e01b81526001600160a01b0385169063f23a6e61906129df9089908990889088908890600401613198565b602060405180830381600087803b1580156129f957600080fd5b505af1925050508015612a29575060408051601f3d908101601f19168201909252612a2691810190612fbb565b60015b612a355761275e6135f8565b6001600160e01b0319811663f23a6e6160e01b1461251e5760405162461bcd60e51b815260040161071c90613228565b80356001600160a01b0381168114612a7c57600080fd5b919050565b600082601f830112612a91578081fd5b81356020612a9e8261348f565b604051612aab8282613585565b8381528281019150858301600585901b87018401881015612aca578586fd5b855b85811015612ae857813584529284019290840190600101612acc565b5090979650505050505050565b600082601f830112612b05578081fd5b81356001600160401b03811115612b1e57612b1e6135e2565b604051612b35601f8301601f191660200182613585565b818152846020838601011115612b49578283fd5b816020850160208301379081016020019190915292915050565b600060208284031215612b74578081fd5b61121982612a65565b60008060408385031215612b8f578081fd5b612b9883612a65565b9150612ba660208401612a65565b90509250929050565b600080600080600060a08688031215612bc6578081fd5b612bcf86612a65565b9450612bdd60208701612a65565b935060408601356001600160401b0380821115612bf8578283fd5b612c0489838a01612a81565b94506060880135915080821115612c19578283fd5b612c2589838a01612a81565b93506080880135915080821115612c3a578283fd5b50612c4788828901612af5565b9150509295509295909350565b600080600080600060a08688031215612c6b578081fd5b612c7486612a65565b9450612c8260208701612a65565b9350604086013592506060860135915060808601356001600160401b03811115612caa578182fd5b612c4788828901612af5565b60008060408385031215612cc8578182fd5b612cd183612a65565b915060208301356001600160401b03811115612ceb578182fd5b612cf785828601612a81565b9150509250929050565b600080600060608486031215612d15578283fd5b612d1e84612a65565b925060208401356001600160401b0380821115612d39578384fd5b612d4587838801612a81565b93506040860135915080821115612d5a578283fd5b50612d6786828701612a81565b9150509250925092565b60008060408385031215612d83578182fd5b612d8c83612a65565b91506020830135612d9c81613698565b809150509250929050565b600080600080600060a08688031215612dbe578283fd5b612dc786612a65565b945060208601356001600160401b03811115612de1578384fd5b612ded88828901612af5565b9450506040860135925060608601359150608086013560ff81168114612e11578182fd5b809150509295509295909350565b60008060408385031215612e31578182fd5b612e3a83612a65565b946020939093013593505050565b600080600060608486031215612e5c578081fd5b612e6584612a65565b95602085013595506040909401359392505050565b60008060408385031215612e8c578182fd5b82356001600160401b0380821115612ea2578384fd5b818501915085601f830112612eb5578384fd5b81356020612ec28261348f565b604051612ecf8282613585565b8381528281019150858301600585901b870184018b1015612eee578889fd5b8896505b84871015612f1757612f0381612a65565b835260019690960195918301918301612ef2565b5096505086013592505080821115612f2d578283fd5b50612cf785828601612a81565b60008060408385031215612f4c578182fd5b82356001600160401b0380821115612f62578384fd5b612f6e86838701612a81565b93506020850135915080821115612f2d578283fd5b600060208284031215612f94578081fd5b815161121981613698565b600060208284031215612fb0578081fd5b8135611219816136a6565b600060208284031215612fcc578081fd5b8151611219816136a6565b600060208284031215612fe8578081fd5b5035919050565b600060208284031215613000578081fd5b5051919050565b60008060408385031215613019578182fd5b50508035926020909101359150565b6000815180845260208085019450808401835b838110156130575781518752958201959082019060010161303b565b509495945050505050565b6000815180845261307a816020860160208601613520565b601f01601f19169290920160200192915050565b600082516130a0818460208701613520565b9190910192915050565b600083516130bc818460208801613520565b60609390931b6bffffffffffffffffffffffff19169190920190815260140192915050565b6001600160a01b0384811682528316602082015260606040820181905260009061310d90830184613062565b95945050505050565b6001600160a01b0386811682528516602082015260a06040820181905260009061314290830186613028565b82810360608401526131548186613028565b905082810360808401526131688185613062565b98975050505050505050565b6001600160a01b039384168152919092166020820152604081019190915260600190565b6001600160a01b03868116825285166020820152604081018490526060810183905260a0608082018190526000906131d290830184613062565b979650505050505050565b6020815260006112196020830184613028565b6040815260006132036040830185613028565b828103602084015261310d8185613028565b6020815260006112196020830184613062565b60208082526028908201527f455243313135353a204552433131353552656365697665722072656a656374656040820152676420746f6b656e7360c01b606082015260800190565b60208082526035908201527f455243313135355472616461626c65236578697374656e74546f6b656e4f6e6c6040820152743c9d102727a72fa2ac24a9aa22a72a2faa27a5a2a760591b606082015260800190565b60208082526024908201527f455243313135353a206275726e20616d6f756e7420657863656564732062616c604082015263616e636560e01b606082015260800190565b60208082526025908201527f455243313135353a207472616e7366657220746f20746865207a65726f206164604082015264647265737360d81b606082015260800190565b60208082526023908201527f455243313135353a206275726e2066726f6d20746865207a65726f206164647260408201526265737360e81b606082015260800190565b6020808252602a908201527f455243313135353a20696e73756666696369656e742062616c616e636520666f60408201526939103a3930b739b332b960b11b606082015260800190565b6020808252818101527f4f776e61626c653a2063616c6c6572206973206e6f7420746865206f776e6572604082015260600190565b60208082526028908201527f455243313135353a2069647320616e6420616d6f756e7473206c656e677468206040820152670dad2e6dac2e8c6d60c31b606082015260800190565b6020808252601f908201527f5265656e7472616e637947756172643a207265656e7472616e742063616c6c00604082015260600190565b60006001600160401b038211156134a8576134a86135e2565b5060051b60200190565b600082198211156134c5576134c56135cc565b500190565b6000826134e557634e487b7160e01b81526012600452602481fd5b500490565b6000816000190483118215151615613504576135046135cc565b500290565b60008282101561351b5761351b6135cc565b500390565b60005b8381101561353b578181015183820152602001613523565b8381111561354a576000848401525b50505050565b600181811c9082168061356457607f821691505b6020821081141561110257634e487b7160e01b600052602260045260246000fd5b601f8201601f191681016001600160401b03811182821017156135aa576135aa6135e2565b6040525050565b60006000198214156135c5576135c56135cc565b5060010190565b634e487b7160e01b600052601160045260246000fd5b634e487b7160e01b600052604160045260246000fd5b600060033d1115611e2657600481823e5160e01c90565b600060443d101561361d5790565b6040516003193d81016004833e81513d6001600160401b03816024840111818411171561364c57505050505090565b82850191508151818111156136645750505050505090565b843d870101602082850101111561367e5750505050505090565b61368d60208286010187613585565b509095945050505050565b80151581146119a957600080fd5b6001600160e01b0319811681146119a957600080fdfec3d58168c5ae7397731d063d5bbf3d657854427343f4c083240f7aacaa2d0f624d6574615472616e73616374696f6e2875696e74323536206e6f6e63652c616464726573732066726f6d2c62797465732066756e6374696f6e5369676e617475726529a2646970667358221220a7f4c79d5058998099ffc753ae57f9a6e12daf963ce892031f432eeb8e593f1364736f6c63430008040033454950373132446f6d61696e28737472696e67206e616d652c737472696e672076657273696f6e2c6164647265737320766572696679696e67436f6e74726163742c627974657333322073616c7429",
  "devdoc": {
    "kind": "dev",
    "methods": {
      "badgeAdminAddress(uint256)": {
        "details": "Return admin address of badge token."
      },
      "badgePrice(uint256)": {
        "details": "Return price of badge token."
      },
      "balanceOf(address,uint256)": {
        "details": "See {IERC1155-balanceOf}. Requirements: - `account` cannot be the zero address."
      },
      "balanceOfBatch(address[],uint256[])": {
        "details": "See {IERC1155-balanceOfBatch}. Requirements: - `accounts` and `ids` must have the same length."
      },
      "burn(address,uint256,uint256)": {
        "details": "See {IERC1155Tradable-burn}."
      },
      "burnBatch(address,uint256[],uint256[])": {
        "details": "See {IERC1155Tradable-burnBatch}."
      },
      "createBadge(address,uint256)": {
        "details": "Create new badge type. Accessible only by governance. `_badgeAdmin` cannot be the zero address."
      },
      "creator(uint256)": {
        "details": "See {IERC1155Tradable-creator}."
      },
      "exists(uint256)": {
        "details": "See {IERC1155Tradable-exists}."
      },
      "grantBadge(address,uint256,uint256)": {
        "details": "Grant badge for free. Accessible only by badge token admin. `_to` cannot be the zero address."
      },
      "isApprovedForAll(address,address)": {
        "details": "See {IERC1155-isApprovedForAll}."
      },
      "owner()": {
        "details": "Returns the address of the current owner."
      },
      "purchaseBadge(uint256,uint256)": {
        "details": "Purchase badge token."
      },
      "purchaseBadgeBatch(uint256[],uint256[])": {
        "details": "Batch version of {purchaseBadge}."
      },
      "renounceOwnership()": {
        "details": "Leaves the contract without owner. It will not be possible to call `onlyOwner` functions anymore. Can only be called by the current owner. NOTE: Renouncing ownership will leave the contract without an owner, thereby removing any functionality that is only available to the owner."
      },
      "safeBatchTransferFrom(address,address,uint256[],uint256[],bytes)": {
        "details": "See {IERC1155-safeBatchTransferFrom}."
      },
      "safeTransferFrom(address,address,uint256,uint256,bytes)": {
        "details": "See {IERC1155-safeTransferFrom}."
      },
      "setApprovalForAll(address,bool)": {
        "details": "See {IERC1155-setApprovalForAll}."
      },
      "setBadgeAdminAddress(address,uint256)": {
        "details": "Return admin address of badge token."
      },
      "setBadgePrice(uint256,uint256)": {
        "details": "Set price of badge token."
      },
      "setCreator(address,uint256)": {
        "details": "See {IERC1155Tradable-setCreator}."
      },
      "setCreatorBatch(address,uint256[])": {
        "details": "See {IERC1155Tradable-setCreatorBatch}."
      },
      "setGovernance(address)": {
        "details": "Set platform governance address."
      },
      "setPlatformFee(uint256)": {
        "details": "Set platform fee."
      },
      "setRevenueAddress(address)": {
        "details": "Set revenue address."
      },
      "supportsInterface(bytes4)": {
        "details": "See {IERC165-supportsInterface}."
      },
      "totalSupply(uint256)": {
        "details": "See {IERC1155Tradable-totalSupply}."
      },
      "transferOwnership(address)": {
        "details": "Transfers ownership of the contract to a new account (`newOwner`). Can only be called by the current owner."
      },
      "uri(uint256)": {
        "details": "See {IERC1155MetadataURI-uri}. This implementation returns the same URI for *all* token types. It relies on the token type ID substitution mechanism https://eips.ethereum.org/EIPS/eip-1155#metadata[defined in the EIP]. Clients calling this function must replace the `\\{id\\}` substring with the actual token type ID."
      }
    },
    "version": 1
  },
  "userdoc": {
    "kind": "user",
    "methods": {},
    "version": 1
  },
  "storageLayout": {
    "storage": [
      {
        "astId": 169,
        "contract": "contracts/BadgeStore.sol:BadgeStore",
        "label": "_balances",
        "offset": 0,
        "slot": "0",
        "type": "t_mapping(t_uint256,t_mapping(t_address,t_uint256))"
      },
      {
        "astId": 175,
        "contract": "contracts/BadgeStore.sol:BadgeStore",
        "label": "_operatorApprovals",
        "offset": 0,
        "slot": "1",
        "type": "t_mapping(t_address,t_mapping(t_address,t_bool))"
      },
      {
        "astId": 177,
        "contract": "contracts/BadgeStore.sol:BadgeStore",
        "label": "_uri",
        "offset": 0,
        "slot": "2",
        "type": "t_string_storage"
      },
      {
        "astId": 7,
        "contract": "contracts/BadgeStore.sol:BadgeStore",
        "label": "_owner",
        "offset": 0,
        "slot": "3",
        "type": "t_address"
      },
      {
        "astId": 4283,
        "contract": "contracts/BadgeStore.sol:BadgeStore",
        "label": "domainSeparator",
        "offset": 0,
        "slot": "4",
        "type": "t_bytes32"
      },
      {
        "astId": 4012,
        "contract": "contracts/BadgeStore.sol:BadgeStore",
        "label": "nonces",
        "offset": 0,
        "slot": "5",
        "type": "t_mapping(t_address,t_uint256)"
      },
      {
        "astId": 3358,
        "contract": "contracts/BadgeStore.sol:BadgeStore",
        "label": "_tokenID",
        "offset": 0,
        "slot": "6",
        "type": "t_struct(Counter)2378_storage"
      },
      {
        "astId": 3362,
        "contract": "contracts/BadgeStore.sol:BadgeStore",
        "label": "_creators",
        "offset": 0,
        "slot": "7",
        "type": "t_mapping(t_uint256,t_address)"
      },
      {
        "astId": 3366,
        "contract": "contracts/BadgeStore.sol:BadgeStore",
        "label": "_tokenSupply",
        "offset": 0,
        "slot": "8",
        "type": "t_mapping(t_uint256,t_uint256)"
      },
      {
        "astId": 114,
        "contract": "contracts/BadgeStore.sol:BadgeStore",
        "label": "_status",
        "offset": 0,
        "slot": "9",
        "type": "t_uint256"
      },
      {
        "astId": 2818,
        "contract": "contracts/BadgeStore.sol:BadgeStore",
        "label": "spn",
        "offset": 0,
        "slot": "10",
        "type": "t_contract(IERC20)2030"
      },
      {
        "astId": 2820,
        "contract": "contracts/BadgeStore.sol:BadgeStore",
        "label": "revenueAddress",
        "offset": 0,
        "slot": "11",
        "type": "t_address"
      },
      {
        "astId": 2822,
        "contract": "contracts/BadgeStore.sol:BadgeStore",
        "label": "governance",
        "offset": 0,
        "slot": "12",
        "type": "t_address"
      },
      {
        "astId": 2825,
        "contract": "contracts/BadgeStore.sol:BadgeStore",
        "label": "platformFee",
        "offset": 0,
        "slot": "13",
        "type": "t_uint256"
      },
      {
        "astId": 2830,
        "contract": "contracts/BadgeStore.sol:BadgeStore",
        "label": "_badgeProps",
        "offset": 0,
        "slot": "14",
        "type": "t_mapping(t_uint256,t_struct(BadgeProp)2815_storage)"
      }
    ],
    "types": {
      "t_address": {
        "encoding": "inplace",
        "label": "address",
        "numberOfBytes": "20"
      },
      "t_bool": {
        "encoding": "inplace",
        "label": "bool",
        "numberOfBytes": "1"
      },
      "t_bytes32": {
        "encoding": "inplace",
        "label": "bytes32",
        "numberOfBytes": "32"
      },
      "t_contract(IERC20)2030": {
        "encoding": "inplace",
        "label": "contract IERC20",
        "numberOfBytes": "20"
      },
      "t_mapping(t_address,t_bool)": {
        "encoding": "mapping",
        "key": "t_address",
        "label": "mapping(address => bool)",
        "numberOfBytes": "32",
        "value": "t_bool"
      },
      "t_mapping(t_address,t_mapping(t_address,t_bool))": {
        "encoding": "mapping",
        "key": "t_address",
        "label": "mapping(address => mapping(address => bool))",
        "numberOfBytes": "32",
        "value": "t_mapping(t_address,t_bool)"
      },
      "t_mapping(t_address,t_uint256)": {
        "encoding": "mapping",
        "key": "t_address",
        "label": "mapping(address => uint256)",
        "numberOfBytes": "32",
        "value": "t_uint256"
      },
      "t_mapping(t_uint256,t_address)": {
        "encoding": "mapping",
        "key": "t_uint256",
        "label": "mapping(uint256 => address)",
        "numberOfBytes": "32",
        "value": "t_address"
      },
      "t_mapping(t_uint256,t_mapping(t_address,t_uint256))": {
        "encoding": "mapping",
        "key": "t_uint256",
        "label": "mapping(uint256 => mapping(address => uint256))",
        "numberOfBytes": "32",
        "value": "t_mapping(t_address,t_uint256)"
      },
      "t_mapping(t_uint256,t_struct(BadgeProp)2815_storage)": {
        "encoding": "mapping",
        "key": "t_uint256",
        "label": "mapping(uint256 => struct BadgeStore.BadgeProp)",
        "numberOfBytes": "32",
        "value": "t_struct(BadgeProp)2815_storage"
      },
      "t_mapping(t_uint256,t_uint256)": {
        "encoding": "mapping",
        "key": "t_uint256",
        "label": "mapping(uint256 => uint256)",
        "numberOfBytes": "32",
        "value": "t_uint256"
      },
      "t_string_storage": {
        "encoding": "bytes",
        "label": "string",
        "numberOfBytes": "32"
      },
      "t_struct(BadgeProp)2815_storage": {
        "encoding": "inplace",
        "label": "struct BadgeStore.BadgeProp",
        "members": [
          {
            "astId": 2812,
            "contract": "contracts/BadgeStore.sol:BadgeStore",
            "label": "admin",
            "offset": 0,
            "slot": "0",
            "type": "t_address"
          },
          {
            "astId": 2814,
            "contract": "contracts/BadgeStore.sol:BadgeStore",
            "label": "price",
            "offset": 0,
            "slot": "1",
            "type": "t_uint256"
          }
        ],
        "numberOfBytes": "64"
      },
      "t_struct(Counter)2378_storage": {
        "encoding": "inplace",
        "label": "struct Counters.Counter",
        "members": [
          {
            "astId": 2377,
            "contract": "contracts/BadgeStore.sol:BadgeStore",
            "label": "_value",
            "offset": 0,
            "slot": "0",
            "type": "t_uint256"
          }
        ],
        "numberOfBytes": "32"
      },
      "t_uint256": {
        "encoding": "inplace",
        "label": "uint256",
        "numberOfBytes": "32"
      }
    }
  }
}