{
  "address": "0x21a97B14499C76731062a3f4c1Fd67CD04D62980",
  "abi": [
    {
      "inputs": [
        {
          "internalType": "string",
          "name": "_name",
          "type": "string"
        },
        {
          "internalType": "string",
          "name": "_uri",
          "type": "string"
        },
        {
          "internalType": "string",
          "name": "_version",
          "type": "string"
        },
        {
          "internalType": "contract IERC20",
          "name": "_spn",
          "type": "address"
        },
        {
          "internalType": "address",
          "name": "_revenueAddress",
          "type": "address"
        }
      ],
      "stateMutability": "nonpayable",
      "type": "constructor"
    },
    {
      "anonymous": false,
      "inputs": [
        {
          "indexed": true,
          "internalType": "address",
          "name": "account",
          "type": "address"
        },
        {
          "indexed": true,
          "internalType": "address",
          "name": "operator",
          "type": "address"
        },
        {
          "indexed": false,
          "internalType": "bool",
          "name": "approved",
          "type": "bool"
        }
      ],
      "name": "ApprovalForAll",
      "type": "event"
    },
    {
      "anonymous": false,
      "inputs": [
        {
          "indexed": true,
          "internalType": "address",
          "name": "account",
          "type": "address"
        },
        {
          "indexed": false,
          "internalType": "uint256",
          "name": "badgeId",
          "type": "uint256"
        }
      ],
      "name": "BadgeCreated",
      "type": "event"
    },
    {
      "anonymous": false,
      "inputs": [
        {
          "indexed": true,
          "internalType": "address",
          "name": "account",
          "type": "address"
        },
        {
          "indexed": false,
          "internalType": "uint256",
          "name": "badgeId",
          "type": "uint256"
        },
        {
          "indexed": false,
          "internalType": "uint256",
          "name": "amount",
          "type": "uint256"
        }
      ],
      "name": "BadgePurchased",
      "type": "event"
    },
    {
      "anonymous": false,
      "inputs": [
        {
          "indexed": false,
          "internalType": "address",
          "name": "userAddress",
          "type": "address"
        },
        {
          "indexed": false,
          "internalType": "address payable",
          "name": "relayerAddress",
          "type": "address"
        },
        {
          "indexed": false,
          "internalType": "bytes",
          "name": "functionSignature",
          "type": "bytes"
        }
      ],
      "name": "MetaTransactionExecuted",
      "type": "event"
    },
    {
      "anonymous": false,
      "inputs": [
        {
          "indexed": true,
          "internalType": "address",
          "name": "previousOwner",
          "type": "address"
        },
        {
          "indexed": true,
          "internalType": "address",
          "name": "newOwner",
          "type": "address"
        }
      ],
      "name": "OwnershipTransferred",
      "type": "event"
    },
    {
      "anonymous": false,
      "inputs": [
        {
          "indexed": true,
          "internalType": "address",
          "name": "operator",
          "type": "address"
        },
        {
          "indexed": true,
          "internalType": "address",
          "name": "from",
          "type": "address"
        },
        {
          "indexed": true,
          "internalType": "address",
          "name": "to",
          "type": "address"
        },
        {
          "indexed": false,
          "internalType": "uint256[]",
          "name": "ids",
          "type": "uint256[]"
        },
        {
          "indexed": false,
          "internalType": "uint256[]",
          "name": "values",
          "type": "uint256[]"
        }
      ],
      "name": "TransferBatch",
      "type": "event"
    },
    {
      "anonymous": false,
      "inputs": [
        {
          "indexed": true,
          "internalType": "address",
          "name": "operator",
          "type": "address"
        },
        {
          "indexed": true,
          "internalType": "address",
          "name": "from",
          "type": "address"
        },
        {
          "indexed": true,
          "internalType": "address",
          "name": "to",
          "type": "address"
        },
        {
          "indexed": false,
          "internalType": "uint256",
          "name": "id",
          "type": "uint256"
        },
        {
          "indexed": false,
          "internalType": "uint256",
          "name": "value",
          "type": "uint256"
        }
      ],
      "name": "TransferSingle",
      "type": "event"
    },
    {
      "anonymous": false,
      "inputs": [
        {
          "indexed": false,
          "internalType": "string",
          "name": "value",
          "type": "string"
        },
        {
          "indexed": true,
          "internalType": "uint256",
          "name": "id",
          "type": "uint256"
        }
      ],
      "name": "URI",
      "type": "event"
    },
    {
      "inputs": [
        {
          "internalType": "address",
          "name": "account",
          "type": "address"
        },
        {
          "internalType": "uint256",
          "name": "id",
          "type": "uint256"
        }
      ],
      "name": "balanceOf",
      "outputs": [
        {
          "internalType": "uint256",
          "name": "",
          "type": "uint256"
        }
      ],
      "stateMutability": "view",
      "type": "function"
    },
    {
      "inputs": [
        {
          "internalType": "address[]",
          "name": "accounts",
          "type": "address[]"
        },
        {
          "internalType": "uint256[]",
          "name": "ids",
          "type": "uint256[]"
        }
      ],
      "name": "balanceOfBatch",
      "outputs": [
        {
          "internalType": "uint256[]",
          "name": "",
          "type": "uint256[]"
        }
      ],
      "stateMutability": "view",
      "type": "function"
    },
    {
      "inputs": [
        {
          "internalType": "address",
          "name": "_account",
          "type": "address"
        },
        {
          "internalType": "uint256",
          "name": "_id",
          "type": "uint256"
        },
        {
          "internalType": "uint256",
          "name": "_value",
          "type": "uint256"
        }
      ],
      "name": "burn",
      "outputs": [],
      "stateMutability": "nonpayable",
      "type": "function"
    },
    {
      "inputs": [
        {
          "internalType": "address",
          "name": "_account",
          "type": "address"
        },
        {
          "internalType": "uint256[]",
          "name": "_ids",
          "type": "uint256[]"
        },
        {
          "internalType": "uint256[]",
          "name": "_values",
          "type": "uint256[]"
        }
      ],
      "name": "burnBatch",
      "outputs": [],
      "stateMutability": "nonpayable",
      "type": "function"
    },
    {
      "inputs": [
        {
          "internalType": "uint256",
          "name": "_price",
          "type": "uint256"
        }
      ],
      "name": "createBadge",
      "outputs": [
        {
          "internalType": "uint256",
          "name": "",
          "type": "uint256"
        }
      ],
      "stateMutability": "nonpayable",
      "type": "function"
    },
    {
      "inputs": [
        {
          "internalType": "uint256",
          "name": "_id",
          "type": "uint256"
        }
      ],
      "name": "creator",
      "outputs": [
        {
          "internalType": "address",
          "name": "",
          "type": "address"
        }
      ],
      "stateMutability": "view",
      "type": "function"
    },
    {
      "inputs": [
        {
          "internalType": "address",
          "name": "userAddress",
          "type": "address"
        },
        {
          "internalType": "bytes",
          "name": "functionSignature",
          "type": "bytes"
        },
        {
          "internalType": "bytes32",
          "name": "sigR",
          "type": "bytes32"
        },
        {
          "internalType": "bytes32",
          "name": "sigS",
          "type": "bytes32"
        },
        {
          "internalType": "uint8",
          "name": "sigV",
          "type": "uint8"
        }
      ],
      "name": "executeMetaTransaction",
      "outputs": [
        {
          "internalType": "bytes",
          "name": "",
          "type": "bytes"
        }
      ],
      "stateMutability": "payable",
      "type": "function"
    },
    {
      "inputs": [
        {
          "internalType": "uint256",
          "name": "_id",
          "type": "uint256"
        }
      ],
      "name": "exists",
      "outputs": [
        {
          "internalType": "bool",
          "name": "",
          "type": "bool"
        }
      ],
      "stateMutability": "view",
      "type": "function"
    },
    {
      "inputs": [
        {
          "internalType": "uint256",
          "name": "_badgeId",
          "type": "uint256"
        }
      ],
      "name": "getBadgePrice",
      "outputs": [
        {
          "internalType": "uint256",
          "name": "",
          "type": "uint256"
        }
      ],
      "stateMutability": "view",
      "type": "function"
    },
    {
      "inputs": [],
      "name": "getFee",
      "outputs": [
        {
          "internalType": "uint256",
          "name": "",
          "type": "uint256"
        }
      ],
      "stateMutability": "view",
      "type": "function"
    },
    {
      "inputs": [
        {
          "internalType": "address",
          "name": "user",
          "type": "address"
        }
      ],
      "name": "getNonce",
      "outputs": [
        {
          "internalType": "uint256",
          "name": "nonce",
          "type": "uint256"
        }
      ],
      "stateMutability": "view",
      "type": "function"
    },
    {
      "inputs": [],
      "name": "getRevenueAddress",
      "outputs": [
        {
          "internalType": "address",
          "name": "",
          "type": "address"
        }
      ],
      "stateMutability": "view",
      "type": "function"
    },
    {
      "inputs": [
        {
          "internalType": "address",
          "name": "account",
          "type": "address"
        },
        {
          "internalType": "address",
          "name": "operator",
          "type": "address"
        }
      ],
      "name": "isApprovedForAll",
      "outputs": [
        {
          "internalType": "bool",
          "name": "",
          "type": "bool"
        }
      ],
      "stateMutability": "view",
      "type": "function"
    },
    {
      "inputs": [],
      "name": "owner",
      "outputs": [
        {
          "internalType": "address",
          "name": "",
          "type": "address"
        }
      ],
      "stateMutability": "view",
      "type": "function"
    },
    {
      "inputs": [
        {
          "internalType": "uint256",
          "name": "_badgeId",
          "type": "uint256"
        },
        {
          "internalType": "uint256",
          "name": "_amount",
          "type": "uint256"
        }
      ],
      "name": "purchaseBadge",
      "outputs": [],
      "stateMutability": "nonpayable",
      "type": "function"
    },
    {
      "inputs": [
        {
          "internalType": "uint256[]",
          "name": "_badgeIds",
          "type": "uint256[]"
        },
        {
          "internalType": "uint256[]",
          "name": "_amounts",
          "type": "uint256[]"
        }
      ],
      "name": "purchaseBadgeBatch",
      "outputs": [],
      "stateMutability": "nonpayable",
      "type": "function"
    },
    {
      "inputs": [],
      "name": "renounceOwnership",
      "outputs": [],
      "stateMutability": "nonpayable",
      "type": "function"
    },
    {
      "inputs": [
        {
          "internalType": "address",
          "name": "from",
          "type": "address"
        },
        {
          "internalType": "address",
          "name": "to",
          "type": "address"
        },
        {
          "internalType": "uint256[]",
          "name": "ids",
          "type": "uint256[]"
        },
        {
          "internalType": "uint256[]",
          "name": "amounts",
          "type": "uint256[]"
        },
        {
          "internalType": "bytes",
          "name": "data",
          "type": "bytes"
        }
      ],
      "name": "safeBatchTransferFrom",
      "outputs": [],
      "stateMutability": "nonpayable",
      "type": "function"
    },
    {
      "inputs": [
        {
          "internalType": "address",
          "name": "from",
          "type": "address"
        },
        {
          "internalType": "address",
          "name": "to",
          "type": "address"
        },
        {
          "internalType": "uint256",
          "name": "id",
          "type": "uint256"
        },
        {
          "internalType": "uint256",
          "name": "amount",
          "type": "uint256"
        },
        {
          "internalType": "bytes",
          "name": "data",
          "type": "bytes"
        }
      ],
      "name": "safeTransferFrom",
      "outputs": [],
      "stateMutability": "nonpayable",
      "type": "function"
    },
    {
      "inputs": [
        {
          "internalType": "address",
          "name": "operator",
          "type": "address"
        },
        {
          "internalType": "bool",
          "name": "approved",
          "type": "bool"
        }
      ],
      "name": "setApprovalForAll",
      "outputs": [],
      "stateMutability": "nonpayable",
      "type": "function"
    },
    {
      "inputs": [
        {
          "internalType": "uint256",
          "name": "_badgeId",
          "type": "uint256"
        },
        {
          "internalType": "uint256",
          "name": "_price",
          "type": "uint256"
        }
      ],
      "name": "setBadgePrice",
      "outputs": [],
      "stateMutability": "nonpayable",
      "type": "function"
    },
    {
      "inputs": [
        {
          "internalType": "address",
          "name": "_to",
          "type": "address"
        },
        {
          "internalType": "uint256",
          "name": "_id",
          "type": "uint256"
        }
      ],
      "name": "setCreator",
      "outputs": [],
      "stateMutability": "nonpayable",
      "type": "function"
    },
    {
      "inputs": [
        {
          "internalType": "address",
          "name": "_to",
          "type": "address"
        },
        {
          "internalType": "uint256[]",
          "name": "_ids",
          "type": "uint256[]"
        }
      ],
      "name": "setCreatorBatch",
      "outputs": [],
      "stateMutability": "nonpayable",
      "type": "function"
    },
    {
      "inputs": [
        {
          "internalType": "uint256",
          "name": "_fee",
          "type": "uint256"
        }
      ],
      "name": "setFee",
      "outputs": [],
      "stateMutability": "nonpayable",
      "type": "function"
    },
    {
      "inputs": [
        {
          "internalType": "address",
          "name": "_revenueAddress",
          "type": "address"
        }
      ],
      "name": "setRevenueAddress",
      "outputs": [],
      "stateMutability": "nonpayable",
      "type": "function"
    },
    {
      "inputs": [
        {
          "internalType": "bytes4",
          "name": "interfaceId",
          "type": "bytes4"
        }
      ],
      "name": "supportsInterface",
      "outputs": [
        {
          "internalType": "bool",
          "name": "",
          "type": "bool"
        }
      ],
      "stateMutability": "view",
      "type": "function"
    },
    {
      "inputs": [
        {
          "internalType": "uint256",
          "name": "_id",
          "type": "uint256"
        }
      ],
      "name": "totalSupply",
      "outputs": [
        {
          "internalType": "uint256",
          "name": "",
          "type": "uint256"
        }
      ],
      "stateMutability": "view",
      "type": "function"
    },
    {
      "inputs": [
        {
          "internalType": "address",
          "name": "newOwner",
          "type": "address"
        }
      ],
      "name": "transferOwnership",
      "outputs": [],
      "stateMutability": "nonpayable",
      "type": "function"
    },
    {
      "inputs": [
        {
          "internalType": "uint256",
          "name": "",
          "type": "uint256"
        }
      ],
      "name": "uri",
      "outputs": [
        {
          "internalType": "string",
          "name": "",
          "type": "string"
        }
      ],
      "stateMutability": "view",
      "type": "function"
    }
  ],
  "transactionHash": "0x46fb12f0904a344e847f0144aadd8e12df588cc0e1f595761ed193dfef3ffa75",
  "args": [
    "Sapien Badge Store",
    "https://sapien.network/badges/{id}.json",
    "v3",
    "0x8174Ab11EEd70297311f7318a71d9e9f48466Fff",
    "0xeF60a8E421639Fc8A63b98118c5b780579b1009A"
  ],
  "solcInputHash": "99ee8a838138bbc3b6a606ed74e444ca",
  "bytecode": "0x60806040526005600c553480156200001657600080fd5b506040516200376a3803806200376a8339810160408190526200003991620002f3565b84848482818181856200004c816200012b565b50620000583362000144565b6040518060800160405280604f81526020016200371b604f91398051906020012082805190602001208280519060200120306200009a6200019660201b60201c565b60408051602081019690965285019390935260608401919091526001600160a01b0316608083015260a082015260c00160408051601f198184030181529190528051602090910120600455505060016009555050600a80546001600160a01b039687166001600160a01b031991821617909155600b8054959096169416939093179093555062000419945050505050565b8051620001409060029060208401906200019a565b5050565b600380546001600160a01b038381166001600160a01b0319831681179093556040519116919082907f8be0079c531659141344cd1fd0a4f28419497f9722a3daafe3b4186f6b6457e090600090a35050565b4690565b828054620001a890620003ad565b90600052602060002090601f016020900481019282620001cc576000855562000217565b82601f10620001e757805160ff191683800117855562000217565b8280016001018555821562000217579182015b8281111562000217578251825591602001919060010190620001fa565b506200022592915062000229565b5090565b5b808211156200022557600081556001016200022a565b600082601f83011262000251578081fd5b81516001600160401b03808211156200026e576200026e620003ea565b604051601f8301601f19908116603f01168101908282118183101715620002995762000299620003ea565b81604052838152602092508683858801011115620002b5578485fd5b8491505b83821015620002d85785820183015181830184015290820190620002b9565b83821115620002e957848385830101525b9695505050505050565b600080600080600060a086880312156200030b578081fd5b85516001600160401b038082111562000322578283fd5b6200033089838a0162000240565b9650602088015191508082111562000346578283fd5b6200035489838a0162000240565b955060408801519150808211156200036a578283fd5b50620003798882890162000240565b93505060608601516200038c8162000400565b60808701519092506200039f8162000400565b809150509295509295909350565b600181811c90821680620003c257607f821691505b60208210811415620003e457634e487b7160e01b600052602260045260246000fd5b50919050565b634e487b7160e01b600052604160045260246000fd5b6001600160a01b03811681146200041657600080fd5b50565b6132f280620004296000396000f3fe6080604052600436106101815760003560e01c80636b20c454116100d7578063cb6e390c11610085578063cb6e390c14610491578063ced72f87146104b1578063e4b845b5146104c6578063e985e9c5146104e6578063f242432a1461052f578063f2fde38b1461054f578063f5298aca1461056f578063fa02ae3b1461058f57600080fd5b80636b20c454146103bc578063715018a6146103dc57806378d1c86d146103f15780638da5cb5b1461040f578063a22cb46514610424578063bd85b03914610444578063c8cb8a751461047157600080fd5b80633b9ba4d4116101345780633b9ba4d4146102a157806342f80895146102c157806345338d63146102e15780634e1273f4146103015780634f558e791461032e578063510b51581461034e57806369fe0e2d1461039c57600080fd5b8062fdd58e1461018657806301ffc9a7146101b95780630c53c51c146101e95780630e89341c146102095780632d0335ab146102295780632eb2c2d61461025f578063373e233314610281575b600080fd5b34801561019257600080fd5b506101a66101a13660046129c0565b6105af565b6040519081526020015b60405180910390f35b3480156101c557600080fd5b506101d96101d4366004612b40565b610646565b60405190151581526020016101b0565b6101fc6101f7366004612948565b610698565b6040516101b09190612db6565b34801561021557600080fd5b506101fc610224366004612b78565b61090f565b34801561023557600080fd5b506101a6610244366004612704565b6001600160a01b031660009081526005602052604090205490565b34801561026b57600080fd5b5061027f61027a366004612750565b6109a3565b005b34801561028d57600080fd5b506101a661029c366004612b78565b610a3a565b3480156102ad57600080fd5b5061027f6102bc366004612ba8565b610b13565b3480156102cd57600080fd5b5061027f6102dc366004612857565b610bdb565b3480156102ed57600080fd5b5061027f6102fc366004612704565b610d44565b34801561030d57600080fd5b5061032161031c366004612a1b565b610e01565b6040516101b09190612d7e565b34801561033a57600080fd5b506101d9610349366004612b78565b610f62565b34801561035a57600080fd5b50610384610369366004612b78565b6000908152600760205260409020546001600160a01b031690565b6040516001600160a01b0390911681526020016101b0565b3480156103a857600080fd5b5061027f6103b7366004612b78565b610f7f565b3480156103c857600080fd5b5061027f6103d73660046128a2565b611003565b3480156103e857600080fd5b5061027f6110a8565b3480156103fd57600080fd5b50600b546001600160a01b0316610384565b34801561041b57600080fd5b506103846110e3565b34801561043057600080fd5b5061027f61043f366004612912565b6110f2565b34801561045057600080fd5b506101a661045f366004612b78565b60009081526008602052604090205490565b34801561047d57600080fd5b5061027f61048c3660046129c0565b6111c9565b34801561049d57600080fd5b506101a66104ac366004612b78565b611292565b3480156104bd57600080fd5b50600c546101a6565b3480156104d257600080fd5b5061027f6104e1366004612adb565b6112d2565b3480156104f257600080fd5b506101d961050136600461271e565b6001600160a01b03918216600090815260016020908152604080832093909416825291909152205460ff1690565b34801561053b57600080fd5b5061027f61054a3660046127f5565b6113e7565b34801561055b57600080fd5b5061027f61056a366004612704565b61146e565b34801561057b57600080fd5b5061027f61058a3660046129e9565b61150e565b34801561059b57600080fd5b5061027f6105aa366004612ba8565b6115ae565b60006001600160a01b0383166106205760405162461bcd60e51b815260206004820152602b60248201527f455243313135353a2062616c616e636520717565727920666f7220746865207a60448201526a65726f206164647265737360a81b60648201526084015b60405180910390fd5b506000908152602081815260408083206001600160a01b03949094168352929052205490565b60006001600160e01b03198216636cdb3d1360e11b148061067757506001600160e01b031982166303a24d0760e21b145b8061069257506301ffc9a760e01b6001600160e01b03198316145b92915050565b606060006106a58661166d565b90506000356001600160e01b0319908116908216141561072d5760405162461bcd60e51b815260206004820152603d60248201527f66756e6374696f6e5369676e61747572652063616e206e6f74206265206f662060448201527f657865637574654d6574615472616e73616374696f6e206d6574686f640000006064820152608401610617565b604080516060810182526001600160a01b0389166000818152600560209081529084902054835282015290810187905261076a8882888888611689565b6107c05760405162461bcd60e51b815260206004820152602160248201527f5369676e657220616e64207369676e617475726520646f206e6f74206d6174636044820152600d60fb1b6064820152608401610617565b6001600160a01b0388166000908152600560205260409020546107e4906001611765565b6001600160a01b0389166000908152600560209081526040808320939093559151909182913091610819918c918e9101612c4b565b60408051601f198184030181529082905261083391612c2f565b6000604051808303816000865af19150503d8060008114610870576040519150601f19603f3d011682016040523d82523d6000602084013e610875565b606091505b5091509150816108c75760405162461bcd60e51b815260206004820152601c60248201527f46756e6374696f6e2063616c6c206e6f74207375636365737366756c000000006044820152606401610617565b7f5845892132946850460bff5a0083f71031bc5bf9aadcd40f1de79423eac9b10b8a338b6040516108fa93929190612c82565b60405180910390a19998505050505050505050565b60606002805461091e906130ed565b80601f016020809104026020016040519081016040528092919081815260200182805461094a906130ed565b80156109975780601f1061096c57610100808354040283529160200191610997565b820191906000526020600020905b81548152906001019060200180831161097a57829003601f168201915b50505050509050919050565b6001600160a01b0385163314806109bf57506109bf8533610501565b610a265760405162461bcd60e51b815260206004820152603260248201527f455243313135353a207472616e736665722063616c6c6572206973206e6f74206044820152711bdddb995c881b9bdc88185c1c1c9bdd995960721b6064820152608401610617565b610a338585858585611778565b5050505050565b6000808211610a995760405162461bcd60e51b815260206004820152602560248201527f426164676553746f72652363726561746542616467653a20494e56414c49445f604482015264505249434560d81b6064820152608401610617565b6000610abd610aa6611930565b60016040518060200160405280600081525061198d565b9050610ac7611930565b6001600160a01b03167fd75afaee7bb449eca514f80e39d18cee89bd5a1a3de9562dd251f7acea82e8b982604051610b0191815260200190565b60405180910390a26106928184611a04565b81610b1d81610f62565b610b395760405162461bcd60e51b815260040161061790612e11565b60026009541415610b5c5760405162461bcd60e51b815260040161061790612ff9565b600260095581610bbf5760405162461bcd60e51b815260206004820152602860248201527f426164676553746f726523707572636861736542616467653a20494e56414c496044820152671117d05353d5539560c21b6064820152608401610617565b610bd1610bca611930565b8484611a77565b5050600160095550565b33610be46110e3565b6001600160a01b031614610c0a5760405162461bcd60e51b815260040161061790612f7c565b6001600160a01b038216610c795760405162461bcd60e51b815260206004820152603060248201527f455243313135355472616461626c652373657443726561746f7242617463683a60448201526f20494e56414c49445f4144445245535360801b6064820152608401610617565b60005b8151811015610d3f576000828281518110610ca757634e487b7160e01b600052603260045260246000fd5b60200260200101519050610cba81610f62565b610d225760405162461bcd60e51b815260206004820152603360248201527f455243313135355472616461626c652373657443726561746f7242617463683a604482015272102727a72fa2ac24a9aa22a72a2faa27a5a2a760691b6064820152608401610617565b610d2c8482611d38565b5080610d378161314e565b915050610c7c565b505050565b33610d4d6110e3565b6001600160a01b031614610d735760405162461bcd60e51b815260040161061790612f7c565b6001600160a01b038116610ddf5760405162461bcd60e51b815260206004820152602d60248201527f426164676553746f726523736574526576656e7565416464726573733a20494e60448201526c56414c49445f4144445245535360981b6064820152608401610617565b600b80546001600160a01b0319166001600160a01b0392909216919091179055565b60608151835114610e665760405162461bcd60e51b815260206004820152602960248201527f455243313135353a206163636f756e747320616e6420696473206c656e677468604482015268040dad2e6dac2e8c6d60bb1b6064820152608401610617565b600083516001600160401b03811115610e8f57634e487b7160e01b600052604160045260246000fd5b604051908082528060200260200182016040528015610eb8578160200160208202803683370190505b50905060005b8451811015610f5a57610f1f858281518110610eea57634e487b7160e01b600052603260045260246000fd5b6020026020010151858381518110610f1257634e487b7160e01b600052603260045260246000fd5b60200260200101516105af565b828281518110610f3f57634e487b7160e01b600052603260045260246000fd5b6020908102919091010152610f538161314e565b9050610ebe565b509392505050565b6000908152600760205260409020546001600160a01b0316151590565b33610f886110e3565b6001600160a01b031614610fae5760405162461bcd60e51b815260040161061790612f7c565b60008111610ffe5760405162461bcd60e51b815260206004820152601e60248201527f426164676553746f7265237365744665653a20494e56414c49445f46454500006044820152606401610617565b600c55565b61100b611930565b6001600160a01b0316836001600160a01b03161480611031575061103183610501611930565b61109d5760405162461bcd60e51b815260206004820152603760248201527f455243313135355472616461626c65236275726e42617463683a2043414c4c456044820152761497d393d7d3d5d3915497d393d497d054141493d59151604a1b6064820152608401610617565b610d3f838383611d66565b336110b16110e3565b6001600160a01b0316146110d75760405162461bcd60e51b815260040161061790612f7c565b6110e16000611efe565b565b6003546001600160a01b031690565b336001600160a01b038316141561115d5760405162461bcd60e51b815260206004820152602960248201527f455243313135353a2073657474696e6720617070726f76616c20737461747573604482015268103337b91039b2b63360b91b6064820152608401610617565b3360008181526001602090815260408083206001600160a01b03871680855290835292819020805460ff191686151590811790915590519081529192917f17307eab39ab6107e8899845ad3d59bd9653f200f220920489ca2b5937696c31910160405180910390a35050565b806111d381610f62565b6111ef5760405162461bcd60e51b815260040161061790612e11565b336111f86110e3565b6001600160a01b03161461121e5760405162461bcd60e51b815260040161061790612f7c565b6001600160a01b0383166112885760405162461bcd60e51b815260206004820152602b60248201527f455243313135355472616461626c652373657443726561746f723a20494e564160448201526a4c49445f4144445245535360a81b6064820152608401610617565b610d3f8383611d38565b60008161129e81610f62565b6112ba5760405162461bcd60e51b815260040161061790612e11565b6000838152600d602052604090205491505b50919050565b600260095414156112f55760405162461bcd60e51b815260040161061790612ff9565b600260095580518251146113695760405162461bcd60e51b815260206004820152603560248201527f426164676553746f7265237075726368617365426164676542617463683a2050604482015274082a4829aa6be988a9c8ea890be9a92a69a82a8869605b1b6064820152608401610617565b60005b8251811015610bd1576113d5611380611930565b8483815181106113a057634e487b7160e01b600052603260045260246000fd5b60200260200101518484815181106113c857634e487b7160e01b600052603260045260246000fd5b6020026020010151611a77565b806113df8161314e565b91505061136c565b6001600160a01b03851633148061140357506114038533610501565b6114615760405162461bcd60e51b815260206004820152602960248201527f455243313135353a2063616c6c6572206973206e6f74206f776e6572206e6f7260448201526808185c1c1c9bdd995960ba1b6064820152608401610617565b610a338585858585611f50565b336114776110e3565b6001600160a01b03161461149d5760405162461bcd60e51b815260040161061790612f7c565b6001600160a01b0381166115025760405162461bcd60e51b815260206004820152602660248201527f4f776e61626c653a206e6577206f776e657220697320746865207a65726f206160448201526564647265737360d01b6064820152608401610617565b61150b81611efe565b50565b611516611930565b6001600160a01b0316836001600160a01b0316148061153c575061153c83610501611930565b6115a35760405162461bcd60e51b815260206004820152603260248201527f455243313135355472616461626c65236275726e3a2043414c4c45525f4e4f5f60448201527113d5d3915497d393d497d054141493d5915160721b6064820152608401610617565b610d3f838383612064565b816115b881610f62565b6115d45760405162461bcd60e51b815260040161061790612e11565b826115dd611930565b6000828152600760205260409020546001600160a01b0390811691161461165d5760405162461bcd60e51b815260206004820152602e60248201527f455243313135355472616461626c65236f6e6c7943726561746f723a2043414c60448201526d2622a92fa727afa1a922a0aa27a960911b6064820152608401610617565b6116678484611a04565b50505050565b600081516000141561168157506000919050565b506020015190565b600080600161169f61169a88612154565b6121d1565b6040805160008152602081018083529290925260ff861690820152606081018790526080810186905260a0016020604051602081039080840390855afa1580156116ed573d6000803e3d6000fd5b5050604051601f1901519150506001600160a01b0381166117445760405162461bcd60e51b8152602060048201526011602482015270496e76616c6964207369676e617475726560781b6044820152606401610617565b866001600160a01b0316816001600160a01b03161491505095945050505050565b60006117718284613053565b9392505050565b81518351146117995760405162461bcd60e51b815260040161061790612fb1565b6001600160a01b0384166117bf5760405162461bcd60e51b815260040161061790612eaa565b3360005b84518110156118c25760008582815181106117ee57634e487b7160e01b600052603260045260246000fd5b60200260200101519050600085838151811061181a57634e487b7160e01b600052603260045260246000fd5b602090810291909101810151600084815280835260408082206001600160a01b038e16835290935291909120549091508181101561186a5760405162461bcd60e51b815260040161061790612f32565b6000838152602081815260408083206001600160a01b038e8116855292528083208585039055908b168252812080548492906118a7908490613053565b92505081905550505050806118bb9061314e565b90506117c3565b50846001600160a01b0316866001600160a01b0316826001600160a01b03167f4a39dc06d4c0dbc64b70af90fd698a233a518aa5d07e595d983b8c0526c8f7fb8787604051611912929190612d91565b60405180910390a4611928818787878787612201565b505050505050565b60003330141561198757600080368080601f0160208091040260200160405190810160405280939291908181526020018383808284376000920191909152505050503601516001600160a01b0316915061198a9050565b50335b90565b600061199d600680546001019055565b60006119a860065490565b90506119b2611930565b600082815260076020526040902080546001600160a01b0319166001600160a01b03929092169190911790556119ea8582868661236c565b600081815260086020526040902084905590509392505050565b60008111611a655760405162461bcd60e51b815260206004820152602860248201527f426164676553746f7265235f736574426164676550726963653a20494e56414c60448201526749445f505249434560c01b6064820152608401610617565b6000918252600d602052604090912055565b6000828152600d6020526040812054611a90908361245b565b90506000611ab46064611aae600c548561245b90919063ffffffff16565b90612467565b600a546040516370a0823160e01b81526001600160a01b0388811660048301529293508492909116906370a082319060240160206040518083038186803b158015611afe57600080fd5b505afa158015611b12573d6000803e3d6000fd5b505050506040513d601f19601f82011682018060405250810190611b369190612b90565b1015611b9a5760405162461bcd60e51b815260206004820152602d60248201527f426164676553746f7265235f707572636861736542616467653a20494e53554660448201526c46494349454e545f46554e445360981b6064820152608401610617565b600a54600b546040516323b872dd60e01b81526001600160a01b03928316926323b872dd92611bd3928a92909116908690600401612d15565b602060405180830381600087803b158015611bed57600080fd5b505af1158015611c01573d6000803e3d6000fd5b505050506040513d601f19601f82011682018060405250810190611c259190612b24565b50600a546001600160a01b03166323b872dd86611c57876000908152600760205260409020546001600160a01b031690565b611c618686612473565b6040518463ffffffff1660e01b8152600401611c7f93929190612d15565b602060405180830381600087803b158015611c9957600080fd5b505af1158015611cad573d6000803e3d6000fd5b505050506040513d601f19601f82011682018060405250810190611cd19190612b24565b50611ced8585856040518060200160405280600081525061247f565b60408051858152602081018590526001600160a01b038716917f9c533333762d0aeee068cbad7d509b41d5f8169d36d47a6491418f0e5543ce6b910160405180910390a25050505050565b600090815260076020526040902080546001600160a01b0319166001600160a01b0392909216919091179055565b6001600160a01b038316611d8c5760405162461bcd60e51b815260040161061790612eef565b8051825114611dad5760405162461bcd60e51b815260040161061790612fb1565b604080516020810190915260009081905233905b8351811015611e9f576000848281518110611dec57634e487b7160e01b600052603260045260246000fd5b602002602001015190506000848381518110611e1857634e487b7160e01b600052603260045260246000fd5b602090810291909101810151600084815280835260408082206001600160a01b038c168352909352919091205490915081811015611e685760405162461bcd60e51b815260040161061790612e66565b6000928352602083815260408085206001600160a01b038b1686529091529092209103905580611e978161314e565b915050611dc1565b5060006001600160a01b0316846001600160a01b0316826001600160a01b03167f4a39dc06d4c0dbc64b70af90fd698a233a518aa5d07e595d983b8c0526c8f7fb8686604051611ef0929190612d91565b60405180910390a450505050565b600380546001600160a01b038381166001600160a01b0319831681179093556040519116919082907f8be0079c531659141344cd1fd0a4f28419497f9722a3daafe3b4186f6b6457e090600090a35050565b6001600160a01b038416611f765760405162461bcd60e51b815260040161061790612eaa565b33611f8f818787611f86886124e3565b610a33886124e3565b6000848152602081815260408083206001600160a01b038a16845290915290205483811015611fd05760405162461bcd60e51b815260040161061790612f32565b6000858152602081815260408083206001600160a01b038b811685529252808320878503905590881682528120805486929061200d908490613053565b909155505060408051868152602081018690526001600160a01b03808916928a8216929186169160008051602061325a833981519152910160405180910390a461205b82888888888861253c565b50505050505050565b6001600160a01b03831661208a5760405162461bcd60e51b815260040161061790612eef565b336120ba8185600061209b876124e3565b6120a4876124e3565b5050604080516020810190915260009052505050565b6000838152602081815260408083206001600160a01b0388168452909152902054828110156120fb5760405162461bcd60e51b815260040161061790612e66565b6000848152602081815260408083206001600160a01b038981168086529184528285208887039055825189815293840188905290929086169160008051602061325a833981519152910160405180910390a45050505050565b600060405180608001604052806043815260200161327a60439139805160209182012083518483015160408087015180519086012090516121b4950193845260208401929092526001600160a01b03166040830152606082015260800190565b604051602081830303815290604052805190602001209050919050565b60006121dc60045490565b60405161190160f01b60208201526022810191909152604281018390526062016121b4565b6001600160a01b0384163b156119285760405163bc197c8160e01b81526001600160a01b0385169063bc197c81906122459089908990889088908890600401612cb7565b602060405180830381600087803b15801561225f57600080fd5b505af192505050801561228f575060408051601f3d908101601f1916820190925261228c91810190612b5c565b60015b61233c5761229b613195565b806308c379a014156122d557506122b06131ac565b806122bb57506122d7565b8060405162461bcd60e51b81526004016106179190612db6565b505b60405162461bcd60e51b815260206004820152603460248201527f455243313135353a207472616e7366657220746f206e6f6e20455243313135356044820152732932b1b2b4bb32b91034b6b83632b6b2b73a32b960611b6064820152608401610617565b6001600160e01b0319811663bc197c8160e01b1461205b5760405162461bcd60e51b815260040161061790612dc9565b6001600160a01b0384166123cc5760405162461bcd60e51b815260206004820152602160248201527f455243313135353a206d696e7420746f20746865207a65726f206164647265736044820152607360f81b6064820152608401610617565b336123dd81600087611f86886124e3565b6000848152602081815260408083206001600160a01b03891684529091528120805485929061240d908490613053565b909155505060408051858152602081018590526001600160a01b03808816926000929185169160008051602061325a833981519152910160405180910390a4610a338160008787878761253c565b6000611771828461308b565b6000611771828461306b565b600061177182846130aa565b8261248981610f62565b6124a55760405162461bcd60e51b815260040161061790612e11565b6124b18585858561236c565b6000848152600860205260409020546124ca9084611765565b6000948552600860205260409094209390935550505050565b6040805160018082528183019092526060916000919060208083019080368337019050509050828160008151811061252b57634e487b7160e01b600052603260045260246000fd5b602090810291909101015292915050565b6001600160a01b0384163b156119285760405163f23a6e6160e01b81526001600160a01b0385169063f23a6e61906125809089908990889088908890600401612d39565b602060405180830381600087803b15801561259a57600080fd5b505af19250505080156125ca575060408051601f3d908101601f191682019092526125c791810190612b5c565b60015b6125d65761229b613195565b6001600160e01b0319811663f23a6e6160e01b1461205b5760405162461bcd60e51b815260040161061790612dc9565b80356001600160a01b038116811461261d57600080fd5b919050565b600082601f830112612632578081fd5b8135602061263f82613030565b60405161264c8282613122565b8381528281019150858301600585901b8701840188101561266b578586fd5b855b858110156126895781358452928401929084019060010161266d565b5090979650505050505050565b600082601f8301126126a6578081fd5b81356001600160401b038111156126bf576126bf61317f565b6040516126d6601f8301601f191660200182613122565b8181528460208386010111156126ea578283fd5b816020850160208301379081016020019190915292915050565b600060208284031215612715578081fd5b61177182612606565b60008060408385031215612730578081fd5b61273983612606565b915061274760208401612606565b90509250929050565b600080600080600060a08688031215612767578081fd5b61277086612606565b945061277e60208701612606565b935060408601356001600160401b0380821115612799578283fd5b6127a589838a01612622565b945060608801359150808211156127ba578283fd5b6127c689838a01612622565b935060808801359150808211156127db578283fd5b506127e888828901612696565b9150509295509295909350565b600080600080600060a0868803121561280c578081fd5b61281586612606565b945061282360208701612606565b9350604086013592506060860135915060808601356001600160401b0381111561284b578182fd5b6127e888828901612696565b60008060408385031215612869578182fd5b61287283612606565b915060208301356001600160401b0381111561288c578182fd5b61289885828601612622565b9150509250929050565b6000806000606084860312156128b6578283fd5b6128bf84612606565b925060208401356001600160401b03808211156128da578384fd5b6128e687838801612622565b935060408601359150808211156128fb578283fd5b5061290886828701612622565b9150509250925092565b60008060408385031215612924578182fd5b61292d83612606565b9150602083013561293d81613235565b809150509250929050565b600080600080600060a0868803121561295f578283fd5b61296886612606565b945060208601356001600160401b03811115612982578384fd5b61298e88828901612696565b9450506040860135925060608601359150608086013560ff811681146129b2578182fd5b809150509295509295909350565b600080604083850312156129d2578182fd5b6129db83612606565b946020939093013593505050565b6000806000606084860312156129fd578081fd5b612a0684612606565b95602085013595506040909401359392505050565b60008060408385031215612a2d578182fd5b82356001600160401b0380821115612a43578384fd5b818501915085601f830112612a56578384fd5b81356020612a6382613030565b604051612a708282613122565b8381528281019150858301600585901b870184018b1015612a8f578889fd5b8896505b84871015612ab857612aa481612606565b835260019690960195918301918301612a93565b5096505086013592505080821115612ace578283fd5b5061289885828601612622565b60008060408385031215612aed578182fd5b82356001600160401b0380821115612b03578384fd5b612b0f86838701612622565b93506020850135915080821115612ace578283fd5b600060208284031215612b35578081fd5b815161177181613235565b600060208284031215612b51578081fd5b813561177181613243565b600060208284031215612b6d578081fd5b815161177181613243565b600060208284031215612b89578081fd5b5035919050565b600060208284031215612ba1578081fd5b5051919050565b60008060408385031215612bba578182fd5b50508035926020909101359150565b6000815180845260208085019450808401835b83811015612bf857815187529582019590820190600101612bdc565b509495945050505050565b60008151808452612c1b8160208601602086016130c1565b601f01601f19169290920160200192915050565b60008251612c418184602087016130c1565b9190910192915050565b60008351612c5d8184602088016130c1565b60609390931b6bffffffffffffffffffffffff19169190920190815260140192915050565b6001600160a01b03848116825283166020820152606060408201819052600090612cae90830184612c03565b95945050505050565b6001600160a01b0386811682528516602082015260a060408201819052600090612ce390830186612bc9565b8281036060840152612cf58186612bc9565b90508281036080840152612d098185612c03565b98975050505050505050565b6001600160a01b039384168152919092166020820152604081019190915260600190565b6001600160a01b03868116825285166020820152604081018490526060810183905260a060808201819052600090612d7390830184612c03565b979650505050505050565b6020815260006117716020830184612bc9565b604081526000612da46040830185612bc9565b8281036020840152612cae8185612bc9565b6020815260006117716020830184612c03565b60208082526028908201527f455243313135353a204552433131353552656365697665722072656a656374656040820152676420746f6b656e7360c01b606082015260800190565b60208082526035908201527f455243313135355472616461626c65236578697374656e74546f6b656e4f6e6c6040820152743c9d102727a72fa2ac24a9aa22a72a2faa27a5a2a760591b606082015260800190565b60208082526024908201527f455243313135353a206275726e20616d6f756e7420657863656564732062616c604082015263616e636560e01b606082015260800190565b60208082526025908201527f455243313135353a207472616e7366657220746f20746865207a65726f206164604082015264647265737360d81b606082015260800190565b60208082526023908201527f455243313135353a206275726e2066726f6d20746865207a65726f206164647260408201526265737360e81b606082015260800190565b6020808252602a908201527f455243313135353a20696e73756666696369656e742062616c616e636520666f60408201526939103a3930b739b332b960b11b606082015260800190565b6020808252818101527f4f776e61626c653a2063616c6c6572206973206e6f7420746865206f776e6572604082015260600190565b60208082526028908201527f455243313135353a2069647320616e6420616d6f756e7473206c656e677468206040820152670dad2e6dac2e8c6d60c31b606082015260800190565b6020808252601f908201527f5265656e7472616e637947756172643a207265656e7472616e742063616c6c00604082015260600190565b60006001600160401b038211156130495761304961317f565b5060051b60200190565b6000821982111561306657613066613169565b500190565b60008261308657634e487b7160e01b81526012600452602481fd5b500490565b60008160001904831182151516156130a5576130a5613169565b500290565b6000828210156130bc576130bc613169565b500390565b60005b838110156130dc5781810151838201526020016130c4565b838111156116675750506000910152565b600181811c9082168061310157607f821691505b602082108114156112cc57634e487b7160e01b600052602260045260246000fd5b601f8201601f191681016001600160401b03811182821017156131475761314761317f565b6040525050565b600060001982141561316257613162613169565b5060010190565b634e487b7160e01b600052601160045260246000fd5b634e487b7160e01b600052604160045260246000fd5b600060033d111561198a57600481823e5160e01c90565b600060443d10156131ba5790565b6040516003193d81016004833e81513d6001600160401b0381602484011181841117156131e957505050505090565b82850191508151818111156132015750505050505090565b843d870101602082850101111561321b5750505050505090565b61322a60208286010187613122565b509095945050505050565b801515811461150b57600080fd5b6001600160e01b03198116811461150b57600080fdfec3d58168c5ae7397731d063d5bbf3d657854427343f4c083240f7aacaa2d0f624d6574615472616e73616374696f6e2875696e74323536206e6f6e63652c616464726573732066726f6d2c62797465732066756e6374696f6e5369676e617475726529a26469706673582212209c0b56cbaf15fbe87a807b4a31dac7a76ce885470e9e165bbc5c67a02b622e1164736f6c63430008040033454950373132446f6d61696e28737472696e67206e616d652c737472696e672076657273696f6e2c6164647265737320766572696679696e67436f6e74726163742c627974657333322073616c7429",
  "devdoc": {
    "kind": "dev",
    "methods": {
      "balanceOf(address,uint256)": {
        "details": "See {IERC1155-balanceOf}. Requirements: - `account` cannot be the zero address."
      },
      "balanceOfBatch(address[],uint256[])": {
        "details": "See {IERC1155-balanceOfBatch}. Requirements: - `accounts` and `ids` must have the same length."
      },
      "burn(address,uint256,uint256)": {
        "details": "See {IERC1155Tradable-burn}."
      },
      "burnBatch(address,uint256[],uint256[])": {
        "details": "See {IERC1155Tradable-burnBatch}."
      },
      "createBadge(uint256)": {
        "details": "Create badge. msgSender() becomes badge creator."
      },
      "creator(uint256)": {
        "details": "See {IERC1155Tradable-creator}."
      },
      "exists(uint256)": {
        "details": "See {IERC1155Tradable-exists}."
      },
      "getBadgePrice(uint256)": {
        "details": "Return price of badge token."
      },
      "getFee()": {
        "details": "Return platform fee."
      },
      "getRevenueAddress()": {
        "details": "Return revenue address."
      },
      "isApprovedForAll(address,address)": {
        "details": "See {IERC1155-isApprovedForAll}."
      },
      "owner()": {
        "details": "Returns the address of the current owner."
      },
      "purchaseBadge(uint256,uint256)": {
        "details": "Purchase badge token."
      },
      "purchaseBadgeBatch(uint256[],uint256[])": {
        "details": "Batch version of {purchaseBadge}."
      },
      "renounceOwnership()": {
        "details": "Leaves the contract without owner. It will not be possible to call `onlyOwner` functions anymore. Can only be called by the current owner. NOTE: Renouncing ownership will leave the contract without an owner, thereby removing any functionality that is only available to the owner."
      },
      "safeBatchTransferFrom(address,address,uint256[],uint256[],bytes)": {
        "details": "See {IERC1155-safeBatchTransferFrom}."
      },
      "safeTransferFrom(address,address,uint256,uint256,bytes)": {
        "details": "See {IERC1155-safeTransferFrom}."
      },
      "setApprovalForAll(address,bool)": {
        "details": "See {IERC1155-setApprovalForAll}."
      },
      "setBadgePrice(uint256,uint256)": {
        "details": "Set price of badge token."
      },
      "setCreator(address,uint256)": {
        "details": "See {IERC1155Tradable-setCreator}."
      },
      "setCreatorBatch(address,uint256[])": {
        "details": "See {IERC1155Tradable-setCreatorBatch}."
      },
      "setFee(uint256)": {
        "details": "Set platform fee."
      },
      "setRevenueAddress(address)": {
        "details": "Set revenue address."
      },
      "supportsInterface(bytes4)": {
        "details": "See {IERC165-supportsInterface}."
      },
      "totalSupply(uint256)": {
        "details": "See {IERC1155Tradable-totalSupply}."
      },
      "transferOwnership(address)": {
        "details": "Transfers ownership of the contract to a new account (`newOwner`). Can only be called by the current owner."
      },
      "uri(uint256)": {
        "details": "See {IERC1155MetadataURI-uri}. This implementation returns the same URI for *all* token types. It relies on the token type ID substitution mechanism https://eips.ethereum.org/EIPS/eip-1155#metadata[defined in the EIP]. Clients calling this function must replace the `\\{id\\}` substring with the actual token type ID."
      }
    },
    "version": 1
  },
  "userdoc": {
    "kind": "user",
    "methods": {},
    "version": 1
  },
  "storageLayout": {
    "storage": [
      {
        "astId": 169,
        "contract": "contracts/BadgeStore.sol:BadgeStore",
        "label": "_balances",
        "offset": 0,
        "slot": "0",
        "type": "t_mapping(t_uint256,t_mapping(t_address,t_uint256))"
      },
      {
        "astId": 175,
        "contract": "contracts/BadgeStore.sol:BadgeStore",
        "label": "_operatorApprovals",
        "offset": 0,
        "slot": "1",
        "type": "t_mapping(t_address,t_mapping(t_address,t_bool))"
      },
      {
        "astId": 177,
        "contract": "contracts/BadgeStore.sol:BadgeStore",
        "label": "_uri",
        "offset": 0,
        "slot": "2",
        "type": "t_string_storage"
      },
      {
        "astId": 7,
        "contract": "contracts/BadgeStore.sol:BadgeStore",
        "label": "_owner",
        "offset": 0,
        "slot": "3",
        "type": "t_address"
      },
      {
        "astId": 4103,
        "contract": "contracts/BadgeStore.sol:BadgeStore",
        "label": "domainSeparator",
        "offset": 0,
        "slot": "4",
        "type": "t_bytes32"
      },
      {
        "astId": 3832,
        "contract": "contracts/BadgeStore.sol:BadgeStore",
        "label": "nonces",
        "offset": 0,
        "slot": "5",
        "type": "t_mapping(t_address,t_uint256)"
      },
      {
        "astId": 3206,
        "contract": "contracts/BadgeStore.sol:BadgeStore",
        "label": "_tokenID",
        "offset": 0,
        "slot": "6",
        "type": "t_struct(Counter)2378_storage"
      },
      {
        "astId": 3210,
        "contract": "contracts/BadgeStore.sol:BadgeStore",
        "label": "_creators",
        "offset": 0,
        "slot": "7",
        "type": "t_mapping(t_uint256,t_address)"
      },
      {
        "astId": 3214,
        "contract": "contracts/BadgeStore.sol:BadgeStore",
        "label": "_tokenSupply",
        "offset": 0,
        "slot": "8",
        "type": "t_mapping(t_uint256,t_uint256)"
      },
      {
        "astId": 114,
        "contract": "contracts/BadgeStore.sol:BadgeStore",
        "label": "_status",
        "offset": 0,
        "slot": "9",
        "type": "t_uint256"
      },
      {
        "astId": 2813,
        "contract": "contracts/BadgeStore.sol:BadgeStore",
        "label": "spn",
        "offset": 0,
        "slot": "10",
        "type": "t_contract(IERC20)2030"
      },
      {
        "astId": 2815,
        "contract": "contracts/BadgeStore.sol:BadgeStore",
        "label": "revenueAddress",
        "offset": 0,
        "slot": "11",
        "type": "t_address"
      },
      {
        "astId": 2818,
        "contract": "contracts/BadgeStore.sol:BadgeStore",
        "label": "fee",
        "offset": 0,
        "slot": "12",
        "type": "t_uint256"
      },
      {
        "astId": 2822,
        "contract": "contracts/BadgeStore.sol:BadgeStore",
        "label": "_badgePrices",
        "offset": 0,
        "slot": "13",
        "type": "t_mapping(t_uint256,t_uint256)"
      }
    ],
    "types": {
      "t_address": {
        "encoding": "inplace",
        "label": "address",
        "numberOfBytes": "20"
      },
      "t_bool": {
        "encoding": "inplace",
        "label": "bool",
        "numberOfBytes": "1"
      },
      "t_bytes32": {
        "encoding": "inplace",
        "label": "bytes32",
        "numberOfBytes": "32"
      },
      "t_contract(IERC20)2030": {
        "encoding": "inplace",
        "label": "contract IERC20",
        "numberOfBytes": "20"
      },
      "t_mapping(t_address,t_bool)": {
        "encoding": "mapping",
        "key": "t_address",
        "label": "mapping(address => bool)",
        "numberOfBytes": "32",
        "value": "t_bool"
      },
      "t_mapping(t_address,t_mapping(t_address,t_bool))": {
        "encoding": "mapping",
        "key": "t_address",
        "label": "mapping(address => mapping(address => bool))",
        "numberOfBytes": "32",
        "value": "t_mapping(t_address,t_bool)"
      },
      "t_mapping(t_address,t_uint256)": {
        "encoding": "mapping",
        "key": "t_address",
        "label": "mapping(address => uint256)",
        "numberOfBytes": "32",
        "value": "t_uint256"
      },
      "t_mapping(t_uint256,t_address)": {
        "encoding": "mapping",
        "key": "t_uint256",
        "label": "mapping(uint256 => address)",
        "numberOfBytes": "32",
        "value": "t_address"
      },
      "t_mapping(t_uint256,t_mapping(t_address,t_uint256))": {
        "encoding": "mapping",
        "key": "t_uint256",
        "label": "mapping(uint256 => mapping(address => uint256))",
        "numberOfBytes": "32",
        "value": "t_mapping(t_address,t_uint256)"
      },
      "t_mapping(t_uint256,t_uint256)": {
        "encoding": "mapping",
        "key": "t_uint256",
        "label": "mapping(uint256 => uint256)",
        "numberOfBytes": "32",
        "value": "t_uint256"
      },
      "t_string_storage": {
        "encoding": "bytes",
        "label": "string",
        "numberOfBytes": "32"
      },
      "t_struct(Counter)2378_storage": {
        "encoding": "inplace",
        "label": "struct Counters.Counter",
        "members": [
          {
            "astId": 2377,
            "contract": "contracts/BadgeStore.sol:BadgeStore",
            "label": "_value",
            "offset": 0,
            "slot": "0",
            "type": "t_uint256"
          }
        ],
        "numberOfBytes": "32"
      },
      "t_uint256": {
        "encoding": "inplace",
        "label": "uint256",
        "numberOfBytes": "32"
      }
    }
  }
}