{
  "address": "0x2ee22E2fFBd1f2450A6879D34172341da31726be",
  "abi": [
    {
      "inputs": [
        {
          "internalType": "string",
          "name": "_name",
          "type": "string"
        },
        {
          "internalType": "string",
          "name": "_uri",
          "type": "string"
        },
        {
          "internalType": "string",
          "name": "_version",
          "type": "string"
        },
        {
          "internalType": "contract IERC20",
          "name": "_spn",
          "type": "address"
        },
        {
          "internalType": "address",
          "name": "_revenueAddress",
          "type": "address"
        },
        {
          "internalType": "address",
          "name": "_governance",
          "type": "address"
        }
      ],
      "stateMutability": "nonpayable",
      "type": "constructor"
    },
    {
      "anonymous": false,
      "inputs": [
        {
          "indexed": true,
          "internalType": "address",
          "name": "account",
          "type": "address"
        },
        {
          "indexed": true,
          "internalType": "address",
          "name": "operator",
          "type": "address"
        },
        {
          "indexed": false,
          "internalType": "bool",
          "name": "approved",
          "type": "bool"
        }
      ],
      "name": "ApprovalForAll",
      "type": "event"
    },
    {
      "anonymous": false,
      "inputs": [
        {
          "indexed": true,
          "internalType": "address",
          "name": "admin",
          "type": "address"
        },
        {
          "indexed": false,
          "internalType": "uint256",
          "name": "badgeId",
          "type": "uint256"
        }
      ],
      "name": "BadgeCreate",
      "type": "event"
    },
    {
      "anonymous": false,
      "inputs": [
        {
          "indexed": true,
          "internalType": "address",
          "name": "recipient",
          "type": "address"
        },
        {
          "indexed": false,
          "internalType": "uint256",
          "name": "badgeId",
          "type": "uint256"
        },
        {
          "indexed": false,
          "internalType": "uint256",
          "name": "amount",
          "type": "uint256"
        }
      ],
      "name": "BadgeGrant",
      "type": "event"
    },
    {
      "anonymous": false,
      "inputs": [
        {
          "indexed": true,
          "internalType": "address",
          "name": "recipient",
          "type": "address"
        },
        {
          "indexed": false,
          "internalType": "uint256",
          "name": "badgeId",
          "type": "uint256"
        },
        {
          "indexed": false,
          "internalType": "uint256",
          "name": "amount",
          "type": "uint256"
        }
      ],
      "name": "BadgePurchase",
      "type": "event"
    },
    {
      "anonymous": false,
      "inputs": [
        {
          "indexed": false,
          "internalType": "address",
          "name": "userAddress",
          "type": "address"
        },
        {
          "indexed": false,
          "internalType": "address payable",
          "name": "relayerAddress",
          "type": "address"
        },
        {
          "indexed": false,
          "internalType": "bytes",
          "name": "functionSignature",
          "type": "bytes"
        }
      ],
      "name": "MetaTransactionExecuted",
      "type": "event"
    },
    {
      "anonymous": false,
      "inputs": [
        {
          "indexed": true,
          "internalType": "address",
          "name": "previousOwner",
          "type": "address"
        },
        {
          "indexed": true,
          "internalType": "address",
          "name": "newOwner",
          "type": "address"
        }
      ],
      "name": "OwnershipTransferred",
      "type": "event"
    },
    {
      "anonymous": false,
      "inputs": [
        {
          "indexed": true,
          "internalType": "address",
          "name": "operator",
          "type": "address"
        },
        {
          "indexed": true,
          "internalType": "address",
          "name": "from",
          "type": "address"
        },
        {
          "indexed": true,
          "internalType": "address",
          "name": "to",
          "type": "address"
        },
        {
          "indexed": false,
          "internalType": "uint256[]",
          "name": "ids",
          "type": "uint256[]"
        },
        {
          "indexed": false,
          "internalType": "uint256[]",
          "name": "values",
          "type": "uint256[]"
        }
      ],
      "name": "TransferBatch",
      "type": "event"
    },
    {
      "anonymous": false,
      "inputs": [
        {
          "indexed": true,
          "internalType": "address",
          "name": "operator",
          "type": "address"
        },
        {
          "indexed": true,
          "internalType": "address",
          "name": "from",
          "type": "address"
        },
        {
          "indexed": true,
          "internalType": "address",
          "name": "to",
          "type": "address"
        },
        {
          "indexed": false,
          "internalType": "uint256",
          "name": "id",
          "type": "uint256"
        },
        {
          "indexed": false,
          "internalType": "uint256",
          "name": "value",
          "type": "uint256"
        }
      ],
      "name": "TransferSingle",
      "type": "event"
    },
    {
      "anonymous": false,
      "inputs": [
        {
          "indexed": false,
          "internalType": "string",
          "name": "value",
          "type": "string"
        },
        {
          "indexed": true,
          "internalType": "uint256",
          "name": "id",
          "type": "uint256"
        }
      ],
      "name": "URI",
      "type": "event"
    },
    {
      "inputs": [],
      "name": "FEE_DENOMINATOR",
      "outputs": [
        {
          "internalType": "uint256",
          "name": "",
          "type": "uint256"
        }
      ],
      "stateMutability": "view",
      "type": "function"
    },
    {
      "inputs": [
        {
          "internalType": "uint256",
          "name": "_badgeId",
          "type": "uint256"
        }
      ],
      "name": "badgeAdmin",
      "outputs": [
        {
          "internalType": "address",
          "name": "",
          "type": "address"
        }
      ],
      "stateMutability": "view",
      "type": "function"
    },
    {
      "inputs": [
        {
          "internalType": "uint256",
          "name": "_badgeId",
          "type": "uint256"
        }
      ],
      "name": "badgePrice",
      "outputs": [
        {
          "internalType": "uint256",
          "name": "",
          "type": "uint256"
        }
      ],
      "stateMutability": "view",
      "type": "function"
    },
    {
      "inputs": [
        {
          "internalType": "uint256",
          "name": "",
          "type": "uint256"
        }
      ],
      "name": "badgeProps",
      "outputs": [
        {
          "internalType": "address",
          "name": "admin",
          "type": "address"
        },
        {
          "internalType": "uint256",
          "name": "price",
          "type": "uint256"
        }
      ],
      "stateMutability": "view",
      "type": "function"
    },
    {
      "inputs": [
        {
          "internalType": "address",
          "name": "account",
          "type": "address"
        },
        {
          "internalType": "uint256",
          "name": "id",
          "type": "uint256"
        }
      ],
      "name": "balanceOf",
      "outputs": [
        {
          "internalType": "uint256",
          "name": "",
          "type": "uint256"
        }
      ],
      "stateMutability": "view",
      "type": "function"
    },
    {
      "inputs": [
        {
          "internalType": "address[]",
          "name": "accounts",
          "type": "address[]"
        },
        {
          "internalType": "uint256[]",
          "name": "ids",
          "type": "uint256[]"
        }
      ],
      "name": "balanceOfBatch",
      "outputs": [
        {
          "internalType": "uint256[]",
          "name": "",
          "type": "uint256[]"
        }
      ],
      "stateMutability": "view",
      "type": "function"
    },
    {
      "inputs": [
        {
          "internalType": "address",
          "name": "_account",
          "type": "address"
        },
        {
          "internalType": "uint256",
          "name": "_id",
          "type": "uint256"
        },
        {
          "internalType": "uint256",
          "name": "_value",
          "type": "uint256"
        }
      ],
      "name": "burn",
      "outputs": [],
      "stateMutability": "nonpayable",
      "type": "function"
    },
    {
      "inputs": [
        {
          "internalType": "address",
          "name": "_account",
          "type": "address"
        },
        {
          "internalType": "uint256[]",
          "name": "_ids",
          "type": "uint256[]"
        },
        {
          "internalType": "uint256[]",
          "name": "_values",
          "type": "uint256[]"
        }
      ],
      "name": "burnBatch",
      "outputs": [],
      "stateMutability": "nonpayable",
      "type": "function"
    },
    {
      "inputs": [
        {
          "internalType": "address",
          "name": "_badgeAdmin",
          "type": "address"
        },
        {
          "internalType": "uint256",
          "name": "_price",
          "type": "uint256"
        }
      ],
      "name": "createBadge",
      "outputs": [
        {
          "internalType": "uint256",
          "name": "",
          "type": "uint256"
        }
      ],
      "stateMutability": "nonpayable",
      "type": "function"
    },
    {
      "inputs": [
        {
          "internalType": "uint256",
          "name": "",
          "type": "uint256"
        }
      ],
      "name": "creator",
      "outputs": [
        {
          "internalType": "address",
          "name": "",
          "type": "address"
        }
      ],
      "stateMutability": "view",
      "type": "function"
    },
    {
      "inputs": [
        {
          "internalType": "address",
          "name": "userAddress",
          "type": "address"
        },
        {
          "internalType": "bytes",
          "name": "functionSignature",
          "type": "bytes"
        },
        {
          "internalType": "bytes32",
          "name": "sigR",
          "type": "bytes32"
        },
        {
          "internalType": "bytes32",
          "name": "sigS",
          "type": "bytes32"
        },
        {
          "internalType": "uint8",
          "name": "sigV",
          "type": "uint8"
        }
      ],
      "name": "executeMetaTransaction",
      "outputs": [
        {
          "internalType": "bytes",
          "name": "",
          "type": "bytes"
        }
      ],
      "stateMutability": "payable",
      "type": "function"
    },
    {
      "inputs": [
        {
          "internalType": "uint256",
          "name": "_id",
          "type": "uint256"
        }
      ],
      "name": "exists",
      "outputs": [
        {
          "internalType": "bool",
          "name": "",
          "type": "bool"
        }
      ],
      "stateMutability": "view",
      "type": "function"
    },
    {
      "inputs": [
        {
          "internalType": "address",
          "name": "user",
          "type": "address"
        }
      ],
      "name": "getNonce",
      "outputs": [
        {
          "internalType": "uint256",
          "name": "nonce",
          "type": "uint256"
        }
      ],
      "stateMutability": "view",
      "type": "function"
    },
    {
      "inputs": [],
      "name": "governance",
      "outputs": [
        {
          "internalType": "address",
          "name": "",
          "type": "address"
        }
      ],
      "stateMutability": "view",
      "type": "function"
    },
    {
      "inputs": [
        {
          "internalType": "address",
          "name": "_to",
          "type": "address"
        },
        {
          "internalType": "uint256",
          "name": "_badgeId",
          "type": "uint256"
        },
        {
          "internalType": "uint256",
          "name": "_amount",
          "type": "uint256"
        }
      ],
      "name": "grantBadge",
      "outputs": [],
      "stateMutability": "nonpayable",
      "type": "function"
    },
    {
      "inputs": [
        {
          "internalType": "address",
          "name": "account",
          "type": "address"
        },
        {
          "internalType": "address",
          "name": "operator",
          "type": "address"
        }
      ],
      "name": "isApprovedForAll",
      "outputs": [
        {
          "internalType": "bool",
          "name": "",
          "type": "bool"
        }
      ],
      "stateMutability": "view",
      "type": "function"
    },
    {
      "inputs": [],
      "name": "owner",
      "outputs": [
        {
          "internalType": "address",
          "name": "",
          "type": "address"
        }
      ],
      "stateMutability": "view",
      "type": "function"
    },
    {
      "inputs": [],
      "name": "platformFee",
      "outputs": [
        {
          "internalType": "uint256",
          "name": "",
          "type": "uint256"
        }
      ],
      "stateMutability": "view",
      "type": "function"
    },
    {
      "inputs": [
        {
          "internalType": "uint256",
          "name": "_badgeId",
          "type": "uint256"
        },
        {
          "internalType": "uint256",
          "name": "_amount",
          "type": "uint256"
        }
      ],
      "name": "purchaseBadge",
      "outputs": [],
      "stateMutability": "nonpayable",
      "type": "function"
    },
    {
      "inputs": [
        {
          "internalType": "uint256[]",
          "name": "_badgeIds",
          "type": "uint256[]"
        },
        {
          "internalType": "uint256[]",
          "name": "_amounts",
          "type": "uint256[]"
        }
      ],
      "name": "purchaseBadgeBatch",
      "outputs": [],
      "stateMutability": "nonpayable",
      "type": "function"
    },
    {
      "inputs": [],
      "name": "renounceOwnership",
      "outputs": [],
      "stateMutability": "nonpayable",
      "type": "function"
    },
    {
      "inputs": [],
      "name": "revenueAddress",
      "outputs": [
        {
          "internalType": "address",
          "name": "",
          "type": "address"
        }
      ],
      "stateMutability": "view",
      "type": "function"
    },
    {
      "inputs": [
        {
          "internalType": "address",
          "name": "from",
          "type": "address"
        },
        {
          "internalType": "address",
          "name": "to",
          "type": "address"
        },
        {
          "internalType": "uint256[]",
          "name": "ids",
          "type": "uint256[]"
        },
        {
          "internalType": "uint256[]",
          "name": "amounts",
          "type": "uint256[]"
        },
        {
          "internalType": "bytes",
          "name": "data",
          "type": "bytes"
        }
      ],
      "name": "safeBatchTransferFrom",
      "outputs": [],
      "stateMutability": "nonpayable",
      "type": "function"
    },
    {
      "inputs": [
        {
          "internalType": "address",
          "name": "from",
          "type": "address"
        },
        {
          "internalType": "address",
          "name": "to",
          "type": "address"
        },
        {
          "internalType": "uint256",
          "name": "id",
          "type": "uint256"
        },
        {
          "internalType": "uint256",
          "name": "amount",
          "type": "uint256"
        },
        {
          "internalType": "bytes",
          "name": "data",
          "type": "bytes"
        }
      ],
      "name": "safeTransferFrom",
      "outputs": [],
      "stateMutability": "nonpayable",
      "type": "function"
    },
    {
      "inputs": [
        {
          "internalType": "address",
          "name": "operator",
          "type": "address"
        },
        {
          "internalType": "bool",
          "name": "approved",
          "type": "bool"
        }
      ],
      "name": "setApprovalForAll",
      "outputs": [],
      "stateMutability": "nonpayable",
      "type": "function"
    },
    {
      "inputs": [
        {
          "internalType": "address",
          "name": "_badgeAdmin",
          "type": "address"
        },
        {
          "internalType": "uint256",
          "name": "_badgeId",
          "type": "uint256"
        }
      ],
      "name": "setBadgeAdmin",
      "outputs": [],
      "stateMutability": "nonpayable",
      "type": "function"
    },
    {
      "inputs": [
        {
          "internalType": "uint256",
          "name": "_badgeId",
          "type": "uint256"
        },
        {
          "internalType": "uint256",
          "name": "_price",
          "type": "uint256"
        }
      ],
      "name": "setBadgePrice",
      "outputs": [],
      "stateMutability": "nonpayable",
      "type": "function"
    },
    {
      "inputs": [
        {
          "internalType": "address",
          "name": "_to",
          "type": "address"
        },
        {
          "internalType": "uint256",
          "name": "_id",
          "type": "uint256"
        }
      ],
      "name": "setCreator",
      "outputs": [],
      "stateMutability": "nonpayable",
      "type": "function"
    },
    {
      "inputs": [
        {
          "internalType": "address",
          "name": "_to",
          "type": "address"
        },
        {
          "internalType": "uint256[]",
          "name": "_ids",
          "type": "uint256[]"
        }
      ],
      "name": "setCreatorBatch",
      "outputs": [],
      "stateMutability": "nonpayable",
      "type": "function"
    },
    {
      "inputs": [
        {
          "internalType": "address",
          "name": "_governance",
          "type": "address"
        }
      ],
      "name": "setGovernance",
      "outputs": [],
      "stateMutability": "nonpayable",
      "type": "function"
    },
    {
      "inputs": [
        {
          "internalType": "uint256",
          "name": "_platformFee",
          "type": "uint256"
        }
      ],
      "name": "setPlatformFee",
      "outputs": [],
      "stateMutability": "nonpayable",
      "type": "function"
    },
    {
      "inputs": [
        {
          "internalType": "address",
          "name": "_revenueAddress",
          "type": "address"
        }
      ],
      "name": "setRevenueAddress",
      "outputs": [],
      "stateMutability": "nonpayable",
      "type": "function"
    },
    {
      "inputs": [],
      "name": "spn",
      "outputs": [
        {
          "internalType": "contract IERC20",
          "name": "",
          "type": "address"
        }
      ],
      "stateMutability": "view",
      "type": "function"
    },
    {
      "inputs": [
        {
          "internalType": "bytes4",
          "name": "interfaceId",
          "type": "bytes4"
        }
      ],
      "name": "supportsInterface",
      "outputs": [
        {
          "internalType": "bool",
          "name": "",
          "type": "bool"
        }
      ],
      "stateMutability": "view",
      "type": "function"
    },
    {
      "inputs": [],
      "name": "tokenID",
      "outputs": [
        {
          "internalType": "uint256",
          "name": "",
          "type": "uint256"
        }
      ],
      "stateMutability": "view",
      "type": "function"
    },
    {
      "inputs": [
        {
          "internalType": "uint256",
          "name": "",
          "type": "uint256"
        }
      ],
      "name": "tokenSupply",
      "outputs": [
        {
          "internalType": "uint256",
          "name": "",
          "type": "uint256"
        }
      ],
      "stateMutability": "view",
      "type": "function"
    },
    {
      "inputs": [
        {
          "internalType": "address",
          "name": "newOwner",
          "type": "address"
        }
      ],
      "name": "transferOwnership",
      "outputs": [],
      "stateMutability": "nonpayable",
      "type": "function"
    },
    {
      "inputs": [
        {
          "internalType": "uint256",
          "name": "",
          "type": "uint256"
        }
      ],
      "name": "uri",
      "outputs": [
        {
          "internalType": "string",
          "name": "",
          "type": "string"
        }
      ],
      "stateMutability": "view",
      "type": "function"
    }
  ],
  "transactionHash": "0xfd22bd89df6978e215e6b6cd134b5653c9e76b2b8b076b42f46fe5768c0d2b00",
  "args": [
    "Sapien Badge Store",
    "https://sapien.network/badges/{id}.json",
    "v3",
    "0x3Cd92Be3Be24daf6D03c46863f868F82D74905bA",
    "0x20E4c1b3C5513B5270A3E87CE75379244b361829",
    "0x9Ba109487226cB29E54D1FC55f5E55Ebff3f0Bfe"
  ],
  "solcInputHash": "32cd64ee122523e0ee334abcd3c16af6",
  "bytecode": "0x60806040526005600d553480156200001657600080fd5b5060405162003d8438038062003d84833981016040819052620000399162000302565b85858581838281816040518060800160405280604f815260200162003d35604f9139805190602001208280519060200120828051906020012030620000836200013a60201b60201c565b60408051602081019690965285019390935260608401919091526001600160a01b0316608083015260a082015260c00160408051601f19818403018152919052805160209091012060005550620000df9250839150506200013e565b50620000eb3362000157565b5050600160095550600a80546001600160a01b039485166001600160a01b031991821617909155600b805493851693821693909317909255600c8054919093169116179055506200043c915050565b4690565b805162000153906004906020840190620001a9565b5050565b600580546001600160a01b038381166001600160a01b0319831681179093556040519116919082907f8be0079c531659141344cd1fd0a4f28419497f9722a3daafe3b4186f6b6457e090600090a35050565b828054620001b790620003d0565b90600052602060002090601f016020900481019282620001db576000855562000226565b82601f10620001f657805160ff191683800117855562000226565b8280016001018555821562000226579182015b828111156200022657825182559160200191906001019062000209565b506200023492915062000238565b5090565b5b8082111562000234576000815560010162000239565b600082601f83011262000260578081fd5b81516001600160401b03808211156200027d576200027d6200040d565b604051601f8301601f19908116603f01168101908282118183101715620002a857620002a86200040d565b81604052838152602092508683858801011115620002c4578485fd5b8491505b83821015620002e75785820183015181830184015290820190620002c8565b83821115620002f857848385830101525b9695505050505050565b60008060008060008060c087890312156200031b578182fd5b86516001600160401b038082111562000332578384fd5b620003408a838b016200024f565b9750602089015191508082111562000356578384fd5b620003648a838b016200024f565b965060408901519150808211156200037a578384fd5b506200038989828a016200024f565b94505060608701516200039c8162000423565b6080880151909350620003af8162000423565b60a0880151909250620003c28162000423565b809150509295509295509295565b600181811c90821680620003e557607f821691505b602082108114156200040757634e487b7160e01b600052602260045260246000fd5b50919050565b634e487b7160e01b600052604160045260246000fd5b6001600160a01b03811681146200043957600080fd5b50565b6138e9806200044c6000396000f3fe6080604052600436106102045760003560e01c8063785b523e11610113578063c8cb8a75116100ab578063e985e9c51161006f578063e985e9c5146106b6578063f242432a146106ff578063f2fde38b1461071f578063f5298aca1461073f578063fa02ae3b1461075f57600080fd5b8063c8cb8a75146105e2578063ceacf81314610602578063d73792a914610661578063d7763f8414610676578063e4b845b51461069657600080fd5b8063785b523e146104d75780638da5cb5b146104f75780639d246cce1461050c578063a22cb4651461052c578063a5c42ef11461054c578063a8a6c0fb14610562578063ab033ea914610582578063b410908d146105a2578063ba3655d0146105c257600080fd5b80633b9ba4d4116101a1578063510b515811610165578063510b515814610414578063566486d9146104625780635aa6e675146104825780636b20c454146104a2578063715018a6146104c257600080fd5b80633b9ba4d41461036757806342f808951461038757806345338d63146103a75780634e1273f4146103c75780634f558e79146103f457600080fd5b8062fdd58e1461020957806301ffc9a71461023c5780630c53c51c1461026c5780630e89341c1461028c57806312e8e2c3146102ac57806326232a2e146102ce5780632693ebf2146102e45780632d0335ab146103115780632eb2c2d614610347575b600080fd5b34801561021557600080fd5b50610229610224366004612fb3565b61077f565b6040519081526020015b60405180910390f35b34801561024857600080fd5b5061025c610257366004613133565b610818565b6040519015158152602001610233565b61027f61027a366004612f3b565b61086a565b60405161023391906133a9565b34801561029857600080fd5b5061027f6102a736600461316b565b610ae2565b3480156102b857600080fd5b506102cc6102c736600461316b565b610b76565b005b3480156102da57600080fd5b50610229600d5481565b3480156102f057600080fd5b506102296102ff36600461316b565b60086020526000908152604090205481565b34801561031d57600080fd5b5061022961032c366004612cf7565b6001600160a01b031660009081526001602052604090205490565b34801561035357600080fd5b506102cc610362366004612d43565b610bfd565b34801561037357600080fd5b506102cc61038236600461319b565b610ca6565b34801561039357600080fd5b506102cc6103a2366004612e4a565b610d6e565b3480156103b357600080fd5b506102cc6103c2366004612cf7565b610ed7565b3480156103d357600080fd5b506103e76103e236600461300e565b610f94565b6040516102339190613371565b34801561040057600080fd5b5061025c61040f36600461316b565b6110f5565b34801561042057600080fd5b5061044a61042f36600461316b565b6007602052600090815260409020546001600160a01b031681565b6040516001600160a01b039091168152602001610233565b34801561046e57600080fd5b50600a5461044a906001600160a01b031681565b34801561048e57600080fd5b50600c5461044a906001600160a01b031681565b3480156104ae57600080fd5b506102cc6104bd366004612e95565b611112565b3480156104ce57600080fd5b506102cc6111b7565b3480156104e357600080fd5b5061044a6104f236600461316b565b6111f2565b34801561050357600080fd5b5061044a61123b565b34801561051857600080fd5b50610229610527366004612fb3565b61124a565b34801561053857600080fd5b506102cc610547366004612f05565b611353565b34801561055857600080fd5b5061022960065481565b34801561056e57600080fd5b506102cc61057d366004612fb3565b611467565b34801561058e57600080fd5b506102cc61059d366004612cf7565b611518565b3480156105ae57600080fd5b50600b5461044a906001600160a01b031681565b3480156105ce57600080fd5b506102296105dd36600461316b565b6115d1565b3480156105ee57600080fd5b506102cc6105fd366004612fb3565b611610565b34801561060e57600080fd5b5061064261061d36600461316b565b600e60205260009081526040902080546001909101546001600160a01b039091169082565b604080516001600160a01b039093168352602083019190915201610233565b34801561066d57600080fd5b50610229606481565b34801561068257600080fd5b506102cc610691366004612fdc565b6116d9565b3480156106a257600080fd5b506102cc6106b13660046130ce565b6118d9565b3480156106c257600080fd5b5061025c6106d1366004612d11565b6001600160a01b03918216600090815260036020908152604080832093909416825291909152205460ff1690565b34801561070b57600080fd5b506102cc61071a366004612de8565b6119ee565b34801561072b57600080fd5b506102cc61073a366004612cf7565b611a87565b34801561074b57600080fd5b506102cc61075a366004612fdc565b611b27565b34801561076b57600080fd5b506102cc61077a36600461319b565b611bc7565b60006001600160a01b0383166107f05760405162461bcd60e51b815260206004820152602b60248201527f455243313135353a2062616c616e636520717565727920666f7220746865207a60448201526a65726f206164647265737360a81b60648201526084015b60405180910390fd5b5060009081526002602090815260408083206001600160a01b03949094168352929052205490565b60006001600160e01b03198216636cdb3d1360e11b148061084957506001600160e01b031982166303a24d0760e21b145b8061086457506301ffc9a760e01b6001600160e01b03198316145b92915050565b6060600061087786611c8b565b90506000356001600160e01b031990811690821614156108ff5760405162461bcd60e51b815260206004820152603d60248201527f66756e6374696f6e5369676e61747572652063616e206e6f74206265206f662060448201527f657865637574654d6574615472616e73616374696f6e206d6574686f6400000060648201526084016107e7565b604080516060810182526001600160a01b0389166000818152600160209081529084902054835282015290810187905261093c8882888888611ca7565b6109925760405162461bcd60e51b815260206004820152602160248201527f5369676e657220616e64207369676e617475726520646f206e6f74206d6174636044820152600d60fb1b60648201526084016107e7565b6001600160a01b0388166000908152600160208190526040909120546109b791611d83565b6001600160a01b03891660009081526001602090815260408083209390935591519091829130916109ec918c918e910161323e565b60408051601f1981840301815290829052610a0691613222565b6000604051808303816000865af19150503d8060008114610a43576040519150601f19603f3d011682016040523d82523d6000602084013e610a48565b606091505b509150915081610a9a5760405162461bcd60e51b815260206004820152601c60248201527f46756e6374696f6e2063616c6c206e6f74207375636365737366756c0000000060448201526064016107e7565b7f5845892132946850460bff5a0083f71031bc5bf9aadcd40f1de79423eac9b10b8a338b604051610acd93929190613275565b60405180910390a19998505050505050505050565b606060048054610af1906136e4565b80601f0160208091040260200160405190810160405280929190818152602001828054610b1d906136e4565b8015610b6a5780601f10610b3f57610100808354040283529160200191610b6a565b820191906000526020600020905b815481529060010190602001808311610b4d57829003601f168201915b50505050509050919050565b600c546001600160a01b0316610b8a611d8f565b6001600160a01b031614610bf85760405162461bcd60e51b815260206004820152602f60248201527f426164676553746f726523736574506c6174666f726d4665653a2043414c4c4560448201526e525f4e4f5f474f5645524e414e434560881b60648201526084016107e7565b600d55565b610c05611d8f565b6001600160a01b0316856001600160a01b03161480610c2b5750610c2b856106d1611d8f565b610c925760405162461bcd60e51b815260206004820152603260248201527f455243313135353a207472616e736665722063616c6c6572206973206e6f74206044820152711bdddb995c881b9bdc88185c1c1c9bdd995960721b60648201526084016107e7565b610c9f8585858585611dec565b5050505050565b81610cb0816110f5565b610ccc5760405162461bcd60e51b81526004016107e790613404565b60026009541415610cef5760405162461bcd60e51b81526004016107e7906135ec565b600260095581610d525760405162461bcd60e51b815260206004820152602860248201527f426164676553746f726523707572636861736542616467653a20494e56414c496044820152671117d05353d5539560c21b60648201526084016107e7565b610d64610d5d611d8f565b8484611fb2565b5050600160095550565b33610d7761123b565b6001600160a01b031614610d9d5760405162461bcd60e51b81526004016107e79061356f565b6001600160a01b038216610e0c5760405162461bcd60e51b815260206004820152603060248201527f455243313135355472616461626c652373657443726561746f7242617463683a60448201526f20494e56414c49445f4144445245535360801b60648201526084016107e7565b60005b8151811015610ed2576000828281518110610e3a57634e487b7160e01b600052603260045260246000fd5b60200260200101519050610e4d816110f5565b610eb55760405162461bcd60e51b815260206004820152603360248201527f455243313135355472616461626c652373657443726561746f7242617463683a604482015272102727a72fa2ac24a9aa22a72a2faa27a5a2a760691b60648201526084016107e7565b610ebf8482612273565b5080610eca81613745565b915050610e0f565b505050565b33610ee061123b565b6001600160a01b031614610f065760405162461bcd60e51b81526004016107e79061356f565b6001600160a01b038116610f725760405162461bcd60e51b815260206004820152602d60248201527f426164676553746f726523736574526576656e7565416464726573733a20494e60448201526c56414c49445f4144445245535360981b60648201526084016107e7565b600b80546001600160a01b0319166001600160a01b0392909216919091179055565b60608151835114610ff95760405162461bcd60e51b815260206004820152602960248201527f455243313135353a206163636f756e747320616e6420696473206c656e677468604482015268040dad2e6dac2e8c6d60bb1b60648201526084016107e7565b600083516001600160401b0381111561102257634e487b7160e01b600052604160045260246000fd5b60405190808252806020026020018201604052801561104b578160200160208202803683370190505b50905060005b84518110156110ed576110b285828151811061107d57634e487b7160e01b600052603260045260246000fd5b60200260200101518583815181106110a557634e487b7160e01b600052603260045260246000fd5b602002602001015161077f565b8282815181106110d257634e487b7160e01b600052603260045260246000fd5b60209081029190910101526110e681613745565b9050611051565b509392505050565b6000908152600760205260409020546001600160a01b0316151590565b61111a611d8f565b6001600160a01b0316836001600160a01b031614806111405750611140836106d1611d8f565b6111ac5760405162461bcd60e51b815260206004820152603760248201527f455243313135355472616461626c65236275726e42617463683a2043414c4c456044820152761497d393d7d3d5d3915497d393d497d054141493d59151604a1b60648201526084016107e7565b610ed28383836122a1565b336111c061123b565b6001600160a01b0316146111e65760405162461bcd60e51b81526004016107e79061356f565b6111f06000612446565b565b6000816111fe816110f5565b61121a5760405162461bcd60e51b81526004016107e790613404565b6000838152600e60205260409020546001600160a01b031691505b50919050565b6005546001600160a01b031690565b600c546000906001600160a01b0316611261611d8f565b6001600160a01b0316146112cc5760405162461bcd60e51b815260206004820152602c60248201527f426164676553746f72652363726561746542616467653a2043414c4c45525f4e60448201526b4f5f474f5645524e414e434560a01b60648201526084016107e7565b60006112e984600160405180602001604052806000815250612498565b9050836001600160a01b03167f701fca9fe1d09f8f50f9c6af29911d30ee0b35c4f4b8f6c138f73ab488e9525c8260405161132691815260200190565b60405180910390a26000818152600e6020526040902060010183905561134c8482612502565b9392505050565b816001600160a01b0316611365611d8f565b6001600160a01b031614156113ce5760405162461bcd60e51b815260206004820152602960248201527f455243313135353a2073657474696e6720617070726f76616c20737461747573604482015268103337b91039b2b63360b91b60648201526084016107e7565b80600360006113db611d8f565b6001600160a01b03908116825260208083019390935260409182016000908120918716808252919093529120805460ff19169215159290921790915561141f611d8f565b6001600160a01b03167f17307eab39ab6107e8899845ad3d59bd9653f200f220920489ca2b5937696c318360405161145b911515815260200190565b60405180910390a35050565b80611471816110f5565b61148d5760405162461bcd60e51b81526004016107e790613404565b600c546001600160a01b03166114a1611d8f565b6001600160a01b03161461150e5760405162461bcd60e51b815260206004820152602e60248201527f426164676553746f726523736574426164676541646d696e3a2043414c4c455260448201526d5f4e4f5f474f5645524e414e434560901b60648201526084016107e7565b610ed28383612502565b3361152161123b565b6001600160a01b0316146115475760405162461bcd60e51b81526004016107e79061356f565b6001600160a01b0381166115af5760405162461bcd60e51b815260206004820152602960248201527f426164676553746f726523736574476f7665726e616e63653a20494e56414c49604482015268445f4144445245535360b81b60648201526084016107e7565b600c80546001600160a01b0319166001600160a01b0392909216919091179055565b6000816115dd816110f5565b6115f95760405162461bcd60e51b81526004016107e790613404565b50506000908152600e602052604090206001015490565b8061161a816110f5565b6116365760405162461bcd60e51b81526004016107e790613404565b3361163f61123b565b6001600160a01b0316146116655760405162461bcd60e51b81526004016107e79061356f565b6001600160a01b0383166116cf5760405162461bcd60e51b815260206004820152602b60248201527f455243313135355472616461626c652373657443726561746f723a20494e564160448201526a4c49445f4144445245535360a81b60648201526084016107e7565b610ed28383612273565b816116e3816110f5565b6116ff5760405162461bcd60e51b81526004016107e790613404565b600260095414156117225760405162461bcd60e51b81526004016107e7906135ec565b6002600955611730836111f2565b6001600160a01b0316611741611d8f565b6001600160a01b0316146117ac5760405162461bcd60e51b815260206004820152602c60248201527f426164676553746f7265236772616e7442616467653a2043414c4c45525f4e4f60448201526b2fa120a223a2afa0a226a4a760a11b60648201526084016107e7565b6001600160a01b0384166118115760405162461bcd60e51b815260206004820152602660248201527f426164676553746f7265236772616e7442616467653a20494e56414c49445f4160448201526544445245535360d01b60648201526084016107e7565b6000821161186f5760405162461bcd60e51b815260206004820152602560248201527f426164676553746f7265236772616e7442616467653a20494e56414c49445f416044820152641353d5539560da1b60648201526084016107e7565b61188a84848460405180602001604052806000815250612530565b60408051848152602081018490526001600160a01b038616917ff1179ee5b4df7a07f60b6537e15c07608e15b042ceb38e36fde2b52a70e37109910160405180910390a2505060016009555050565b600260095414156118fc5760405162461bcd60e51b81526004016107e7906135ec565b600260095580518251146119705760405162461bcd60e51b815260206004820152603560248201527f426164676553746f7265237075726368617365426164676542617463683a2050604482015274082a4829aa6be988a9c8ea890be9a92a69a82a8869605b1b60648201526084016107e7565b60005b8251811015610d64576119dc611987611d8f565b8483815181106119a757634e487b7160e01b600052603260045260246000fd5b60200260200101518484815181106119cf57634e487b7160e01b600052603260045260246000fd5b6020026020010151611fb2565b806119e681613745565b915050611973565b6119f6611d8f565b6001600160a01b0316856001600160a01b03161480611a1c5750611a1c856106d1611d8f565b611a7a5760405162461bcd60e51b815260206004820152602960248201527f455243313135353a2063616c6c6572206973206e6f74206f776e6572206e6f7260448201526808185c1c1c9bdd995960ba1b60648201526084016107e7565b610c9f858585858561258c565b33611a9061123b565b6001600160a01b031614611ab65760405162461bcd60e51b81526004016107e79061356f565b6001600160a01b038116611b1b5760405162461bcd60e51b815260206004820152602660248201527f4f776e61626c653a206e6577206f776e657220697320746865207a65726f206160448201526564647265737360d01b60648201526084016107e7565b611b2481612446565b50565b611b2f611d8f565b6001600160a01b0316836001600160a01b03161480611b555750611b55836106d1611d8f565b611bbc5760405162461bcd60e51b815260206004820152603260248201527f455243313135355472616461626c65236275726e3a2043414c4c45525f4e4f5f60448201527113d5d3915497d393d497d054141493d5915160721b60648201526084016107e7565b610ed28383836126af565b81611bd1816110f5565b611bed5760405162461bcd60e51b81526004016107e790613404565b611bf6836111f2565b6001600160a01b0316611c07611d8f565b6001600160a01b031614611c755760405162461bcd60e51b815260206004820152602f60248201527f426164676553746f726523736574426164676550726963653a2043414c4c455260448201526e2fa727afa120a223a2afa0a226a4a760891b60648201526084016107e7565b506000918252600e602052604090912060010155565b6000815160001415611c9f57506000919050565b506020015190565b6000806001611cbd611cb8886127ae565b61282b565b6040805160008152602081018083529290925260ff861690820152606081018790526080810186905260a0016020604051602081039080840390855afa158015611d0b573d6000803e3d6000fd5b5050604051601f1901519150506001600160a01b038116611d625760405162461bcd60e51b8152602060048201526011602482015270496e76616c6964207369676e617475726560781b60448201526064016107e7565b866001600160a01b0316816001600160a01b03161491505095945050505050565b600061134c8284613646565b600033301415611de657600080368080601f0160208091040260200160405190810160405280939291908181526020018383808284376000920191909152505050503601516001600160a01b03169150611de99050565b50335b90565b8151835114611e0d5760405162461bcd60e51b81526004016107e7906135a4565b6001600160a01b038416611e335760405162461bcd60e51b81526004016107e79061349d565b6000611e3d611d8f565b905060005b8451811015611f44576000858281518110611e6d57634e487b7160e01b600052603260045260246000fd5b602002602001015190506000858381518110611e9957634e487b7160e01b600052603260045260246000fd5b60209081029190910181015160008481526002835260408082206001600160a01b038e168352909352919091205490915081811015611eea5760405162461bcd60e51b81526004016107e790613525565b60008381526002602090815260408083206001600160a01b038e8116855292528083208585039055908b16825281208054849290611f29908490613646565b9250508190555050505080611f3d90613745565b9050611e42565b50846001600160a01b0316866001600160a01b0316826001600160a01b03167f4a39dc06d4c0dbc64b70af90fd698a233a518aa5d07e595d983b8c0526c8f7fb8787604051611f94929190613384565b60405180910390a4611faa818787878787612854565b505050505050565b6000828152600e60205260409020600101541561220f576000828152600e6020526040812060010154611fe690839061367e565b905060006064600d5483611ffa919061367e565b612004919061365e565b600a546040516370a0823160e01b81526001600160a01b0388811660048301529293508492909116906370a082319060240160206040518083038186803b15801561204e57600080fd5b505afa158015612062573d6000803e3d6000fd5b505050506040513d601f19601f820116820180604052508101906120869190613183565b10156120ea5760405162461bcd60e51b815260206004820152602d60248201527f426164676553746f7265235f707572636861736542616467653a20494e53554660448201526c46494349454e545f46554e445360981b60648201526084016107e7565b600a54600b546040516323b872dd60e01b81526001600160a01b03928316926323b872dd92612123928a92909116908690600401613308565b602060405180830381600087803b15801561213d57600080fd5b505af1158015612151573d6000803e3d6000fd5b505050506040513d601f19601f820116820180604052508101906121759190613117565b50600a546001600160a01b03166323b872dd86612191876111f2565b61219b858761369d565b6040518463ffffffff1660e01b81526004016121b993929190613308565b602060405180830381600087803b1580156121d357600080fd5b505af11580156121e7573d6000803e3d6000fd5b505050506040513d601f19601f8201168201806040525081019061220b9190613117565b5050505b61222a83838360405180602001604052806000815250612530565b60408051838152602081018390526001600160a01b038516917f6a86d8fb0fa4fa0f74c2f74f9b87d359e78289e71aa96936d78c18b95886d561910160405180910390a2505050565b600090815260076020526040902080546001600160a01b0319166001600160a01b0392909216919091179055565b6001600160a01b0383166122c75760405162461bcd60e51b81526004016107e7906134e2565b80518251146122e85760405162461bcd60e51b81526004016107e7906135a4565b60006122f2611d8f565b604080516020810190915260009052905060005b83518110156123e757600084828151811061233157634e487b7160e01b600052603260045260246000fd5b60200260200101519050600084838151811061235d57634e487b7160e01b600052603260045260246000fd5b60209081029190910181015160008481526002835260408082206001600160a01b038c1683529093529190912054909150818110156123ae5760405162461bcd60e51b81526004016107e790613459565b60009283526002602090815260408085206001600160a01b038b16865290915290922091039055806123df81613745565b915050612306565b5060006001600160a01b0316846001600160a01b0316826001600160a01b03167f4a39dc06d4c0dbc64b70af90fd698a233a518aa5d07e595d983b8c0526c8f7fb8686604051612438929190613384565b60405180910390a450505050565b600580546001600160a01b038381166001600160a01b0319831681179093556040519116919082907f8be0079c531659141344cd1fd0a4f28419497f9722a3daafe3b4186f6b6457e090600090a35050565b6000806124a36129bf565b90506124ad611d8f565b600082815260076020526040902080546001600160a01b0319166001600160a01b039283161790558516156124fa576124e8858286866129da565b60008181526008602052604090208490555b949350505050565b6000908152600e6020526040902080546001600160a01b0319166001600160a01b0392909216919091179055565b8261253a816110f5565b6125565760405162461bcd60e51b81526004016107e790613404565b612562858585856129da565b60008481526008602052604081208054859290612580908490613646565b90915550505050505050565b6001600160a01b0384166125b25760405162461bcd60e51b81526004016107e79061349d565b60006125bc611d8f565b90506125d68187876125cd88612ad6565b610c9f88612ad6565b60008481526002602090815260408083206001600160a01b038a168452909152902054838110156126195760405162461bcd60e51b81526004016107e790613525565b60008581526002602090815260408083206001600160a01b038b8116855292528083208785039055908816825281208054869290612658908490613646565b909155505060408051868152602081018690526001600160a01b03808916928a82169291861691600080516020613851833981519152910160405180910390a46126a6828888888888612b2f565b50505050505050565b6001600160a01b0383166126d55760405162461bcd60e51b81526004016107e7906134e2565b60006126df611d8f565b9050612710818560006126f187612ad6565b6126fa87612ad6565b5050604080516020810190915260009052505050565b60008381526002602090815260408083206001600160a01b0388168452909152902054828110156127535760405162461bcd60e51b81526004016107e790613459565b60008481526002602090815260408083206001600160a01b0389811680865291845282852088870390558251898152938401889052909290861691600080516020613851833981519152910160405180910390a45050505050565b6000604051806080016040528060438152602001613871604391398051602091820120835184830151604080870151805190860120905161280e950193845260208401929092526001600160a01b03166040830152606082015260800190565b604051602081830303815290604052805190602001209050919050565b6000805460405161190160f01b602082015260228101919091526042810183905260620161280e565b6001600160a01b0384163b15611faa5760405163bc197c8160e01b81526001600160a01b0385169063bc197c819061289890899089908890889088906004016132aa565b602060405180830381600087803b1580156128b257600080fd5b505af19250505080156128e2575060408051601f3d908101601f191682019092526128df9181019061314f565b60015b61298f576128ee61378c565b806308c379a0141561292857506129036137a3565b8061290e575061292a565b8060405162461bcd60e51b81526004016107e791906133a9565b505b60405162461bcd60e51b815260206004820152603460248201527f455243313135353a207472616e7366657220746f206e6f6e20455243313135356044820152732932b1b2b4bb32b91034b6b83632b6b2b73a32b960611b60648201526084016107e7565b6001600160e01b0319811663bc197c8160e01b146126a65760405162461bcd60e51b81526004016107e7906133bc565b60006006600081546129d090613745565b9182905550919050565b6001600160a01b038416612a3a5760405162461bcd60e51b815260206004820152602160248201527f455243313135353a206d696e7420746f20746865207a65726f206164647265736044820152607360f81b60648201526084016107e7565b6000612a44611d8f565b9050612a56816000876125cd88612ad6565b60008481526002602090815260408083206001600160a01b038916845290915281208054859290612a88908490613646565b909155505060408051858152602081018590526001600160a01b038088169260009291851691600080516020613851833981519152910160405180910390a4610c9f81600087878787612b2f565b60408051600180825281830190925260609160009190602080830190803683370190505090508281600081518110612b1e57634e487b7160e01b600052603260045260246000fd5b602090810291909101015292915050565b6001600160a01b0384163b15611faa5760405163f23a6e6160e01b81526001600160a01b0385169063f23a6e6190612b73908990899088908890889060040161332c565b602060405180830381600087803b158015612b8d57600080fd5b505af1925050508015612bbd575060408051601f3d908101601f19168201909252612bba9181019061314f565b60015b612bc9576128ee61378c565b6001600160e01b0319811663f23a6e6160e01b146126a65760405162461bcd60e51b81526004016107e7906133bc565b80356001600160a01b0381168114612c1057600080fd5b919050565b600082601f830112612c25578081fd5b81356020612c3282613623565b604051612c3f8282613719565b8381528281019150858301600585901b87018401881015612c5e578586fd5b855b85811015612c7c57813584529284019290840190600101612c60565b5090979650505050505050565b600082601f830112612c99578081fd5b81356001600160401b03811115612cb257612cb2613776565b604051612cc9601f8301601f191660200182613719565b818152846020838601011115612cdd578283fd5b816020850160208301379081016020019190915292915050565b600060208284031215612d08578081fd5b61134c82612bf9565b60008060408385031215612d23578081fd5b612d2c83612bf9565b9150612d3a60208401612bf9565b90509250929050565b600080600080600060a08688031215612d5a578081fd5b612d6386612bf9565b9450612d7160208701612bf9565b935060408601356001600160401b0380821115612d8c578283fd5b612d9889838a01612c15565b94506060880135915080821115612dad578283fd5b612db989838a01612c15565b93506080880135915080821115612dce578283fd5b50612ddb88828901612c89565b9150509295509295909350565b600080600080600060a08688031215612dff578081fd5b612e0886612bf9565b9450612e1660208701612bf9565b9350604086013592506060860135915060808601356001600160401b03811115612e3e578182fd5b612ddb88828901612c89565b60008060408385031215612e5c578182fd5b612e6583612bf9565b915060208301356001600160401b03811115612e7f578182fd5b612e8b85828601612c15565b9150509250929050565b600080600060608486031215612ea9578283fd5b612eb284612bf9565b925060208401356001600160401b0380821115612ecd578384fd5b612ed987838801612c15565b93506040860135915080821115612eee578283fd5b50612efb86828701612c15565b9150509250925092565b60008060408385031215612f17578182fd5b612f2083612bf9565b91506020830135612f308161382c565b809150509250929050565b600080600080600060a08688031215612f52578283fd5b612f5b86612bf9565b945060208601356001600160401b03811115612f75578384fd5b612f8188828901612c89565b9450506040860135925060608601359150608086013560ff81168114612fa5578182fd5b809150509295509295909350565b60008060408385031215612fc5578182fd5b612fce83612bf9565b946020939093013593505050565b600080600060608486031215612ff0578081fd5b612ff984612bf9565b95602085013595506040909401359392505050565b60008060408385031215613020578182fd5b82356001600160401b0380821115613036578384fd5b818501915085601f830112613049578384fd5b8135602061305682613623565b6040516130638282613719565b8381528281019150858301600585901b870184018b1015613082578889fd5b8896505b848710156130ab5761309781612bf9565b835260019690960195918301918301613086565b50965050860135925050808211156130c1578283fd5b50612e8b85828601612c15565b600080604083850312156130e0578182fd5b82356001600160401b03808211156130f6578384fd5b61310286838701612c15565b935060208501359150808211156130c1578283fd5b600060208284031215613128578081fd5b815161134c8161382c565b600060208284031215613144578081fd5b813561134c8161383a565b600060208284031215613160578081fd5b815161134c8161383a565b60006020828403121561317c578081fd5b5035919050565b600060208284031215613194578081fd5b5051919050565b600080604083850312156131ad578182fd5b50508035926020909101359150565b6000815180845260208085019450808401835b838110156131eb578151875295820195908201906001016131cf565b509495945050505050565b6000815180845261320e8160208601602086016136b4565b601f01601f19169290920160200192915050565b600082516132348184602087016136b4565b9190910192915050565b600083516132508184602088016136b4565b60609390931b6bffffffffffffffffffffffff19169190920190815260140192915050565b6001600160a01b038481168252831660208201526060604082018190526000906132a1908301846131f6565b95945050505050565b6001600160a01b0386811682528516602082015260a0604082018190526000906132d6908301866131bc565b82810360608401526132e881866131bc565b905082810360808401526132fc81856131f6565b98975050505050505050565b6001600160a01b039384168152919092166020820152604081019190915260600190565b6001600160a01b03868116825285166020820152604081018490526060810183905260a060808201819052600090613366908301846131f6565b979650505050505050565b60208152600061134c60208301846131bc565b60408152600061339760408301856131bc565b82810360208401526132a181856131bc565b60208152600061134c60208301846131f6565b60208082526028908201527f455243313135353a204552433131353552656365697665722072656a656374656040820152676420746f6b656e7360c01b606082015260800190565b60208082526035908201527f455243313135355472616461626c65236578697374656e74546f6b656e4f6e6c6040820152743c9d102727a72fa2ac24a9aa22a72a2faa27a5a2a760591b606082015260800190565b60208082526024908201527f455243313135353a206275726e20616d6f756e7420657863656564732062616c604082015263616e636560e01b606082015260800190565b60208082526025908201527f455243313135353a207472616e7366657220746f20746865207a65726f206164604082015264647265737360d81b606082015260800190565b60208082526023908201527f455243313135353a206275726e2066726f6d20746865207a65726f206164647260408201526265737360e81b606082015260800190565b6020808252602a908201527f455243313135353a20696e73756666696369656e742062616c616e636520666f60408201526939103a3930b739b332b960b11b606082015260800190565b6020808252818101527f4f776e61626c653a2063616c6c6572206973206e6f7420746865206f776e6572604082015260600190565b60208082526028908201527f455243313135353a2069647320616e6420616d6f756e7473206c656e677468206040820152670dad2e6dac2e8c6d60c31b606082015260800190565b6020808252601f908201527f5265656e7472616e637947756172643a207265656e7472616e742063616c6c00604082015260600190565b60006001600160401b0382111561363c5761363c613776565b5060051b60200190565b6000821982111561365957613659613760565b500190565b60008261367957634e487b7160e01b81526012600452602481fd5b500490565b600081600019048311821515161561369857613698613760565b500290565b6000828210156136af576136af613760565b500390565b60005b838110156136cf5781810151838201526020016136b7565b838111156136de576000848401525b50505050565b600181811c908216806136f857607f821691505b6020821081141561123557634e487b7160e01b600052602260045260246000fd5b601f8201601f191681016001600160401b038111828210171561373e5761373e613776565b6040525050565b600060001982141561375957613759613760565b5060010190565b634e487b7160e01b600052601160045260246000fd5b634e487b7160e01b600052604160045260246000fd5b600060033d1115611de957600481823e5160e01c90565b600060443d10156137b15790565b6040516003193d81016004833e81513d6001600160401b0381602484011181841117156137e057505050505090565b82850191508151818111156137f85750505050505090565b843d87010160208285010111156138125750505050505090565b61382160208286010187613719565b509095945050505050565b8015158114611b2457600080fd5b6001600160e01b031981168114611b2457600080fdfec3d58168c5ae7397731d063d5bbf3d657854427343f4c083240f7aacaa2d0f624d6574615472616e73616374696f6e2875696e74323536206e6f6e63652c616464726573732066726f6d2c62797465732066756e6374696f6e5369676e617475726529a26469706673582212200035ccca71dbfbdce001b5c9faeac4eda8ca6b1cc052f46d449f9fd9093cae5b64736f6c63430008040033454950373132446f6d61696e28737472696e67206e616d652c737472696e672076657273696f6e2c6164647265737320766572696679696e67436f6e74726163742c627974657333322073616c7429",
  "devdoc": {
    "kind": "dev",
    "methods": {
      "badgeAdmin(uint256)": {
        "details": "Return admin address of badge token."
      },
      "badgePrice(uint256)": {
        "details": "Return price of badge token."
      },
      "balanceOf(address,uint256)": {
        "details": "See {IERC1155-balanceOf}. Requirements: - `account` cannot be the zero address."
      },
      "balanceOfBatch(address[],uint256[])": {
        "details": "See {IERC1155-balanceOfBatch}. Requirements: - `accounts` and `ids` must have the same length."
      },
      "burn(address,uint256,uint256)": {
        "details": "See {IERC1155Tradable-burn}."
      },
      "burnBatch(address,uint256[],uint256[])": {
        "details": "See {IERC1155Tradable-burnBatch}."
      },
      "createBadge(address,uint256)": {
        "details": "Create new badge type. Accessible only by governance. `_badgeAdmin` cannot be the zero address."
      },
      "exists(uint256)": {
        "details": "See {IERC1155Tradable-exists}."
      },
      "grantBadge(address,uint256,uint256)": {
        "details": "Grant badge for free. Accessible only by badge token admin. `_to` cannot be the zero address."
      },
      "isApprovedForAll(address,address)": {
        "details": "See {IERC1155-isApprovedForAll}."
      },
      "owner()": {
        "details": "Returns the address of the current owner."
      },
      "purchaseBadge(uint256,uint256)": {
        "details": "Purchase badge token."
      },
      "purchaseBadgeBatch(uint256[],uint256[])": {
        "details": "Batch version of {purchaseBadge}."
      },
      "renounceOwnership()": {
        "details": "Leaves the contract without owner. It will not be possible to call `onlyOwner` functions anymore. Can only be called by the current owner. NOTE: Renouncing ownership will leave the contract without an owner, thereby removing any functionality that is only available to the owner."
      },
      "safeBatchTransferFrom(address,address,uint256[],uint256[],bytes)": {
        "details": "See {IERC1155-safeBatchTransferFrom}."
      },
      "safeTransferFrom(address,address,uint256,uint256,bytes)": {
        "details": "See {IERC1155-safeTransferFrom}."
      },
      "setApprovalForAll(address,bool)": {
        "details": "See {IERC1155-setApprovalForAll}."
      },
      "setBadgeAdmin(address,uint256)": {
        "details": "Return admin address of badge token."
      },
      "setBadgePrice(uint256,uint256)": {
        "details": "Set price of badge token."
      },
      "setCreator(address,uint256)": {
        "details": "See {IERC1155Tradable-setCreator}."
      },
      "setCreatorBatch(address,uint256[])": {
        "details": "See {IERC1155Tradable-setCreatorBatch}."
      },
      "setGovernance(address)": {
        "details": "Set platform governance address."
      },
      "setPlatformFee(uint256)": {
        "details": "Set platform fee."
      },
      "setRevenueAddress(address)": {
        "details": "Set revenue address."
      },
      "supportsInterface(bytes4)": {
        "details": "See {IERC165-supportsInterface}."
      },
      "transferOwnership(address)": {
        "details": "Transfers ownership of the contract to a new account (`newOwner`). Can only be called by the current owner."
      },
      "uri(uint256)": {
        "details": "See {IERC1155MetadataURI-uri}. This implementation returns the same URI for *all* token types. It relies on the token type ID substitution mechanism https://eips.ethereum.org/EIPS/eip-1155#metadata[defined in the EIP]. Clients calling this function must replace the `\\{id\\}` substring with the actual token type ID."
      }
    },
    "version": 1
  },
  "userdoc": {
    "kind": "user",
    "methods": {},
    "version": 1
  },
  "storageLayout": {
    "storage": [
      {
        "astId": 2519,
        "contract": "contracts/BadgeStore.sol:BadgeStore",
        "label": "domainSeparator",
        "offset": 0,
        "slot": "0",
        "type": "t_bytes32"
      },
      {
        "astId": 2248,
        "contract": "contracts/BadgeStore.sol:BadgeStore",
        "label": "nonces",
        "offset": 0,
        "slot": "1",
        "type": "t_mapping(t_address,t_uint256)"
      },
      {
        "astId": 2662,
        "contract": "contracts/BadgeStore.sol:BadgeStore",
        "label": "_balances",
        "offset": 0,
        "slot": "2",
        "type": "t_mapping(t_uint256,t_mapping(t_address,t_uint256))"
      },
      {
        "astId": 2668,
        "contract": "contracts/BadgeStore.sol:BadgeStore",
        "label": "_operatorApprovals",
        "offset": 0,
        "slot": "3",
        "type": "t_mapping(t_address,t_mapping(t_address,t_bool))"
      },
      {
        "astId": 2670,
        "contract": "contracts/BadgeStore.sol:BadgeStore",
        "label": "_uri",
        "offset": 0,
        "slot": "4",
        "type": "t_string_storage"
      },
      {
        "astId": 7,
        "contract": "contracts/BadgeStore.sol:BadgeStore",
        "label": "_owner",
        "offset": 0,
        "slot": "5",
        "type": "t_address"
      },
      {
        "astId": 1677,
        "contract": "contracts/BadgeStore.sol:BadgeStore",
        "label": "tokenID",
        "offset": 0,
        "slot": "6",
        "type": "t_uint256"
      },
      {
        "astId": 1681,
        "contract": "contracts/BadgeStore.sol:BadgeStore",
        "label": "creator",
        "offset": 0,
        "slot": "7",
        "type": "t_mapping(t_uint256,t_address)"
      },
      {
        "astId": 1685,
        "contract": "contracts/BadgeStore.sol:BadgeStore",
        "label": "tokenSupply",
        "offset": 0,
        "slot": "8",
        "type": "t_mapping(t_uint256,t_uint256)"
      },
      {
        "astId": 114,
        "contract": "contracts/BadgeStore.sol:BadgeStore",
        "label": "_status",
        "offset": 0,
        "slot": "9",
        "type": "t_uint256"
      },
      {
        "astId": 1145,
        "contract": "contracts/BadgeStore.sol:BadgeStore",
        "label": "spn",
        "offset": 0,
        "slot": "10",
        "type": "t_contract(IERC20)767"
      },
      {
        "astId": 1147,
        "contract": "contracts/BadgeStore.sol:BadgeStore",
        "label": "revenueAddress",
        "offset": 0,
        "slot": "11",
        "type": "t_address"
      },
      {
        "astId": 1149,
        "contract": "contracts/BadgeStore.sol:BadgeStore",
        "label": "governance",
        "offset": 0,
        "slot": "12",
        "type": "t_address"
      },
      {
        "astId": 1152,
        "contract": "contracts/BadgeStore.sol:BadgeStore",
        "label": "platformFee",
        "offset": 0,
        "slot": "13",
        "type": "t_uint256"
      },
      {
        "astId": 1160,
        "contract": "contracts/BadgeStore.sol:BadgeStore",
        "label": "badgeProps",
        "offset": 0,
        "slot": "14",
        "type": "t_mapping(t_uint256,t_struct(BadgeProp)1142_storage)"
      }
    ],
    "types": {
      "t_address": {
        "encoding": "inplace",
        "label": "address",
        "numberOfBytes": "20"
      },
      "t_bool": {
        "encoding": "inplace",
        "label": "bool",
        "numberOfBytes": "1"
      },
      "t_bytes32": {
        "encoding": "inplace",
        "label": "bytes32",
        "numberOfBytes": "32"
      },
      "t_contract(IERC20)767": {
        "encoding": "inplace",
        "label": "contract IERC20",
        "numberOfBytes": "20"
      },
      "t_mapping(t_address,t_bool)": {
        "encoding": "mapping",
        "key": "t_address",
        "label": "mapping(address => bool)",
        "numberOfBytes": "32",
        "value": "t_bool"
      },
      "t_mapping(t_address,t_mapping(t_address,t_bool))": {
        "encoding": "mapping",
        "key": "t_address",
        "label": "mapping(address => mapping(address => bool))",
        "numberOfBytes": "32",
        "value": "t_mapping(t_address,t_bool)"
      },
      "t_mapping(t_address,t_uint256)": {
        "encoding": "mapping",
        "key": "t_address",
        "label": "mapping(address => uint256)",
        "numberOfBytes": "32",
        "value": "t_uint256"
      },
      "t_mapping(t_uint256,t_address)": {
        "encoding": "mapping",
        "key": "t_uint256",
        "label": "mapping(uint256 => address)",
        "numberOfBytes": "32",
        "value": "t_address"
      },
      "t_mapping(t_uint256,t_mapping(t_address,t_uint256))": {
        "encoding": "mapping",
        "key": "t_uint256",
        "label": "mapping(uint256 => mapping(address => uint256))",
        "numberOfBytes": "32",
        "value": "t_mapping(t_address,t_uint256)"
      },
      "t_mapping(t_uint256,t_struct(BadgeProp)1142_storage)": {
        "encoding": "mapping",
        "key": "t_uint256",
        "label": "mapping(uint256 => struct BadgeStore.BadgeProp)",
        "numberOfBytes": "32",
        "value": "t_struct(BadgeProp)1142_storage"
      },
      "t_mapping(t_uint256,t_uint256)": {
        "encoding": "mapping",
        "key": "t_uint256",
        "label": "mapping(uint256 => uint256)",
        "numberOfBytes": "32",
        "value": "t_uint256"
      },
      "t_string_storage": {
        "encoding": "bytes",
        "label": "string",
        "numberOfBytes": "32"
      },
      "t_struct(BadgeProp)1142_storage": {
        "encoding": "inplace",
        "label": "struct BadgeStore.BadgeProp",
        "members": [
          {
            "astId": 1139,
            "contract": "contracts/BadgeStore.sol:BadgeStore",
            "label": "admin",
            "offset": 0,
            "slot": "0",
            "type": "t_address"
          },
          {
            "astId": 1141,
            "contract": "contracts/BadgeStore.sol:BadgeStore",
            "label": "price",
            "offset": 0,
            "slot": "1",
            "type": "t_uint256"
          }
        ],
        "numberOfBytes": "64"
      },
      "t_uint256": {
        "encoding": "inplace",
        "label": "uint256",
        "numberOfBytes": "32"
      }
    }
  }
}