{
  "address": "0xBac27Ed5d503b2F40C76Ff0c747bF55C753433DA",
  "abi": [
    {
      "inputs": [
        {
          "internalType": "address",
          "name": "_governance",
          "type": "address"
        }
      ],
      "stateMutability": "nonpayable",
      "type": "constructor"
    },
    {
      "anonymous": false,
      "inputs": [
        {
          "indexed": false,
          "internalType": "address",
          "name": "prev",
          "type": "address"
        },
        {
          "indexed": false,
          "internalType": "address",
          "name": "next",
          "type": "address"
        }
      ],
      "name": "LogGovernanceSet",
      "type": "event"
    },
    {
      "anonymous": false,
      "inputs": [
        {
          "indexed": true,
          "internalType": "address",
          "name": "previousOwner",
          "type": "address"
        },
        {
          "indexed": true,
          "internalType": "address",
          "name": "newOwner",
          "type": "address"
        }
      ],
      "name": "OwnershipTransferred",
      "type": "event"
    },
    {
      "anonymous": false,
      "inputs": [
        {
          "indexed": true,
          "internalType": "bytes32",
          "name": "role",
          "type": "bytes32"
        },
        {
          "indexed": true,
          "internalType": "bytes32",
          "name": "previousAdminRole",
          "type": "bytes32"
        },
        {
          "indexed": true,
          "internalType": "bytes32",
          "name": "newAdminRole",
          "type": "bytes32"
        }
      ],
      "name": "RoleAdminChanged",
      "type": "event"
    },
    {
      "anonymous": false,
      "inputs": [
        {
          "indexed": true,
          "internalType": "bytes32",
          "name": "role",
          "type": "bytes32"
        },
        {
          "indexed": true,
          "internalType": "address",
          "name": "account",
          "type": "address"
        },
        {
          "indexed": true,
          "internalType": "address",
          "name": "sender",
          "type": "address"
        }
      ],
      "name": "RoleGranted",
      "type": "event"
    },
    {
      "anonymous": false,
      "inputs": [
        {
          "indexed": true,
          "internalType": "bytes32",
          "name": "role",
          "type": "bytes32"
        },
        {
          "indexed": true,
          "internalType": "address",
          "name": "account",
          "type": "address"
        },
        {
          "indexed": true,
          "internalType": "address",
          "name": "sender",
          "type": "address"
        }
      ],
      "name": "RoleRevoked",
      "type": "event"
    },
    {
      "inputs": [],
      "name": "DEFAULT_ADMIN_ROLE",
      "outputs": [
        {
          "internalType": "bytes32",
          "name": "",
          "type": "bytes32"
        }
      ],
      "stateMutability": "view",
      "type": "function"
    },
    {
      "inputs": [],
      "name": "GOVERNANCE_ROLE",
      "outputs": [
        {
          "internalType": "bytes32",
          "name": "",
          "type": "bytes32"
        }
      ],
      "stateMutability": "view",
      "type": "function"
    },
    {
      "inputs": [],
      "name": "MARKETPLACE_ROLE",
      "outputs": [
        {
          "internalType": "bytes32",
          "name": "",
          "type": "bytes32"
        }
      ],
      "stateMutability": "view",
      "type": "function"
    },
    {
      "inputs": [
        {
          "internalType": "address",
          "name": "_account",
          "type": "address"
        }
      ],
      "name": "addMarketplace",
      "outputs": [],
      "stateMutability": "nonpayable",
      "type": "function"
    },
    {
      "inputs": [
        {
          "internalType": "bytes32",
          "name": "role",
          "type": "bytes32"
        }
      ],
      "name": "getRoleAdmin",
      "outputs": [
        {
          "internalType": "bytes32",
          "name": "",
          "type": "bytes32"
        }
      ],
      "stateMutability": "view",
      "type": "function"
    },
    {
      "inputs": [
        {
          "internalType": "bytes32",
          "name": "role",
          "type": "bytes32"
        },
        {
          "internalType": "uint256",
          "name": "index",
          "type": "uint256"
        }
      ],
      "name": "getRoleMember",
      "outputs": [
        {
          "internalType": "address",
          "name": "",
          "type": "address"
        }
      ],
      "stateMutability": "view",
      "type": "function"
    },
    {
      "inputs": [
        {
          "internalType": "bytes32",
          "name": "role",
          "type": "bytes32"
        }
      ],
      "name": "getRoleMemberCount",
      "outputs": [
        {
          "internalType": "uint256",
          "name": "",
          "type": "uint256"
        }
      ],
      "stateMutability": "view",
      "type": "function"
    },
    {
      "inputs": [],
      "name": "governance",
      "outputs": [
        {
          "internalType": "address",
          "name": "",
          "type": "address"
        }
      ],
      "stateMutability": "view",
      "type": "function"
    },
    {
      "inputs": [
        {
          "internalType": "bytes32",
          "name": "role",
          "type": "bytes32"
        },
        {
          "internalType": "address",
          "name": "account",
          "type": "address"
        }
      ],
      "name": "grantRole",
      "outputs": [],
      "stateMutability": "nonpayable",
      "type": "function"
    },
    {
      "inputs": [
        {
          "internalType": "bytes32",
          "name": "role",
          "type": "bytes32"
        },
        {
          "internalType": "address",
          "name": "account",
          "type": "address"
        }
      ],
      "name": "hasRole",
      "outputs": [
        {
          "internalType": "bool",
          "name": "",
          "type": "bool"
        }
      ],
      "stateMutability": "view",
      "type": "function"
    },
    {
      "inputs": [
        {
          "internalType": "address",
          "name": "_account",
          "type": "address"
        }
      ],
      "name": "isMarketplace",
      "outputs": [
        {
          "internalType": "bool",
          "name": "",
          "type": "bool"
        }
      ],
      "stateMutability": "view",
      "type": "function"
    },
    {
      "inputs": [],
      "name": "owner",
      "outputs": [
        {
          "internalType": "address",
          "name": "",
          "type": "address"
        }
      ],
      "stateMutability": "view",
      "type": "function"
    },
    {
      "inputs": [
        {
          "internalType": "address",
          "name": "_account",
          "type": "address"
        }
      ],
      "name": "removeMarketplace",
      "outputs": [],
      "stateMutability": "nonpayable",
      "type": "function"
    },
    {
      "inputs": [],
      "name": "renounceOwnership",
      "outputs": [],
      "stateMutability": "nonpayable",
      "type": "function"
    },
    {
      "inputs": [
        {
          "internalType": "bytes32",
          "name": "role",
          "type": "bytes32"
        },
        {
          "internalType": "address",
          "name": "account",
          "type": "address"
        }
      ],
      "name": "renounceRole",
      "outputs": [],
      "stateMutability": "nonpayable",
      "type": "function"
    },
    {
      "inputs": [
        {
          "internalType": "bytes32",
          "name": "role",
          "type": "bytes32"
        },
        {
          "internalType": "address",
          "name": "account",
          "type": "address"
        }
      ],
      "name": "revokeRole",
      "outputs": [],
      "stateMutability": "nonpayable",
      "type": "function"
    },
    {
      "inputs": [
        {
          "internalType": "address",
          "name": "_governance",
          "type": "address"
        }
      ],
      "name": "setGovernance",
      "outputs": [],
      "stateMutability": "nonpayable",
      "type": "function"
    },
    {
      "inputs": [
        {
          "internalType": "bytes4",
          "name": "interfaceId",
          "type": "bytes4"
        }
      ],
      "name": "supportsInterface",
      "outputs": [
        {
          "internalType": "bool",
          "name": "",
          "type": "bool"
        }
      ],
      "stateMutability": "view",
      "type": "function"
    },
    {
      "inputs": [
        {
          "internalType": "address",
          "name": "newOwner",
          "type": "address"
        }
      ],
      "name": "transferOwnership",
      "outputs": [],
      "stateMutability": "nonpayable",
      "type": "function"
    }
  ],
  "transactionHash": "0xfa7d5587b9bebae94a29abbe92acb7ca4f7453bf40f5f105e885241cfdfec939",
  "args": [
    "0xeF60a8E421639Fc8A63b98118c5b780579b1009A"
  ],
  "solcInputHash": "3dca830073f4a1607b80dfa26c21c153",
  "bytecode": "0x60806040523480156200001157600080fd5b506040516200127e3803806200127e8339810160408190526200003491620002bc565b6200003f3362000105565b6001600160a01b038116620000aa5760405162461bcd60e51b815260206004820152602760248201527f526f6c654d616e616765723a20474f5645524e414e43455f414444524553535f6044820152661253959053125160ca1b606482015260840160405180910390fd5b600380546001600160a01b0319166001600160a01b038316179055620000d260003362000157565b620000fe7f71840dc4906352362b0cdaf79870196c8e42acafade72d5d5a6d59291253ceb18262000157565b50620002ec565b600280546001600160a01b038381166001600160a01b0319831681179093556040519116919082907f8be0079c531659141344cd1fd0a4f28419497f9722a3daafe3b4186f6b6457e090600090a35050565b6200016e82826200019a60201b6200065a1760201c565b60008281526001602090815260409091206200019591839062000668620001aa821b17901c565b505050565b620001a68282620001ca565b5050565b6000620001c1836001600160a01b0384166200026a565b90505b92915050565b6000828152602081815260408083206001600160a01b038516845290915290205460ff16620001a6576000828152602081815260408083206001600160a01b03851684529091529020805460ff19166001179055620002263390565b6001600160a01b0316816001600160a01b0316837f2f8788117e7eff1d82e926ec794901d17c78024a50270940304540a733656f0d60405160405180910390a45050565b6000818152600183016020526040812054620002b357508154600181810184556000848152602080822090930184905584548482528286019093526040902091909155620001c4565b506000620001c4565b600060208284031215620002ce578081fd5b81516001600160a01b0381168114620002e5578182fd5b9392505050565b610f8280620002fc6000396000f3fe608060405234801561001057600080fd5b50600436106101115760003560e01c80639010d07c116100ad578063ca15c87311610071578063ca15c8731461024e578063d547741f14610261578063f2fde38b14610274578063f36c8f5c14610287578063f89fba3f1461029c57600080fd5b80639010d07c146101f857806391d148541461020b578063a217fddf1461021e578063ab033ea914610226578063c3439f3f1461023957600080fd5b806301ffc9a714610116578063248a9ca31461013e5780632f2ff15d1461016f57806336568abe14610184578063417ed258146101975780635aa6e675146101aa578063715018a6146101d557806371771330146101dd5780638da5cb5b146101f0575b600080fd5b610129610124366004610d62565b6102af565b60405190151581526020015b60405180910390f35b61016161014c366004610cfe565b60009081526020819052604090206001015490565b604051908152602001610135565b61018261017d366004610d16565b6102da565b005b610182610192366004610d16565b610301565b6101296101a5366004610ce4565b610323565b6003546101bd906001600160a01b031681565b6040516001600160a01b039091168152602001610135565b61018261033d565b6101826101eb366004610ce4565b610381565b6101bd6103cb565b6101bd610206366004610d41565b6103da565b610129610219366004610d16565b6103f9565b610161600081565b610182610234366004610ce4565b610422565b610161600080516020610f2d83398151915281565b61016161025c366004610cfe565b610555565b61018261026f366004610d16565b61056c565b610182610282366004610ce4565b610576565b610161600080516020610f0d83398151915281565b6101826102aa366004610ce4565b610613565b60006001600160e01b03198216635a05180f60e01b14806102d457506102d48261067d565b92915050565b6102e482826106b2565b60008281526001602052604090206102fc9082610668565b505050565b61030b82826106d8565b60008281526001602052604090206102fc9082610752565b60006102d4600080516020610f2d833981519152836103f9565b336103466103cb565b6001600160a01b0316146103755760405162461bcd60e51b815260040161036c90610e2c565b60405180910390fd5b61037f6000610767565b565b3361038a6103cb565b6001600160a01b0316146103b05760405162461bcd60e51b815260040161036c90610e2c565b6103c8600080516020610f2d833981519152826102da565b50565b6002546001600160a01b031690565b60008281526001602052604081206103f290836107b9565b9392505050565b6000918252602082815260408084206001600160a01b0393909316845291905290205460ff1690565b3361042b6103cb565b6001600160a01b0316146104515760405162461bcd60e51b815260040161036c90610e2c565b6001600160a01b0381166104b75760405162461bcd60e51b815260206004820152602760248201527f526f6c654d616e616765723a20474f5645524e414e43455f414444524553535f6044820152661253959053125160ca1b606482015260840161036c565b6003546001600160a01b03166104db600080516020610f0d8339815191528261056c565b600380546001600160a01b0319166001600160a01b03841617905561050e600080516020610f0d833981519152836102da565b604080516001600160a01b038084168252841660208201527fc8f2d7bef3df6a83dcce3a5e125d66d6c1e5f18685af2f2a1cc71d4d56f9e900910160405180910390a15050565b60008181526001602052604081206102d4906107c5565b61030b82826107cf565b3361057f6103cb565b6001600160a01b0316146105a55760405162461bcd60e51b815260040161036c90610e2c565b6001600160a01b03811661060a5760405162461bcd60e51b815260206004820152602660248201527f4f776e61626c653a206e6577206f776e657220697320746865207a65726f206160448201526564647265737360d01b606482015260840161036c565b6103c881610767565b3361061c6103cb565b6001600160a01b0316146106425760405162461bcd60e51b815260040161036c90610e2c565b6103c8600080516020610f2d8339815191528261056c565b61066482826107f5565b5050565b60006103f2836001600160a01b038416610879565b60006001600160e01b03198216637965db0b60e01b14806102d457506301ffc9a760e01b6001600160e01b03198316146102d4565b6000828152602081905260409020600101546106ce81336108c8565b6102fc83836107f5565b6001600160a01b03811633146107485760405162461bcd60e51b815260206004820152602f60248201527f416363657373436f6e74726f6c3a2063616e206f6e6c792072656e6f756e636560448201526e103937b632b9903337b91039b2b63360891b606482015260840161036c565b610664828261092c565b60006103f2836001600160a01b038416610991565b600280546001600160a01b038381166001600160a01b0319831681179093556040519116919082907f8be0079c531659141344cd1fd0a4f28419497f9722a3daafe3b4186f6b6457e090600090a35050565b60006103f28383610aae565b60006102d4825490565b6000828152602081905260409020600101546107eb81336108c8565b6102fc838361092c565b6107ff82826103f9565b610664576000828152602081815260408083206001600160a01b03851684529091529020805460ff191660011790556108353390565b6001600160a01b0316816001600160a01b0316837f2f8788117e7eff1d82e926ec794901d17c78024a50270940304540a733656f0d60405160405180910390a45050565b60008181526001830160205260408120546108c0575081546001818101845560008481526020808220909301849055845484825282860190935260409020919091556102d4565b5060006102d4565b6108d282826103f9565b610664576108ea816001600160a01b03166014610ae6565b6108f5836020610ae6565b604051602001610906929190610d8a565b60408051601f198184030181529082905262461bcd60e51b825261036c91600401610df9565b61093682826103f9565b15610664576000828152602081815260408083206001600160a01b0385168085529252808320805460ff1916905551339285917ff6391f5c32d9c69d2a47ea670b442974b53935d1edc7fd64eb21e047a839171b9190a45050565b60008181526001830160205260408120548015610aa45760006109b5600183610e98565b85549091506000906109c990600190610e98565b9050818114610a4a5760008660000182815481106109f757634e487b7160e01b600052603260045260246000fd5b9060005260206000200154905080876000018481548110610a2857634e487b7160e01b600052603260045260246000fd5b6000918252602080832090910192909255918252600188019052604090208390555b8554869080610a6957634e487b7160e01b600052603160045260246000fd5b6001900381819060005260206000200160009055905585600101600086815260200190815260200160002060009055600193505050506102d4565b60009150506102d4565b6000826000018281548110610ad357634e487b7160e01b600052603260045260246000fd5b9060005260206000200154905092915050565b60606000610af5836002610e79565b610b00906002610e61565b67ffffffffffffffff811115610b2657634e487b7160e01b600052604160045260246000fd5b6040519080825280601f01601f191660200182016040528015610b50576020820181803683370190505b509050600360fc1b81600081518110610b7957634e487b7160e01b600052603260045260246000fd5b60200101906001600160f81b031916908160001a905350600f60fb1b81600181518110610bb657634e487b7160e01b600052603260045260246000fd5b60200101906001600160f81b031916908160001a9053506000610bda846002610e79565b610be5906001610e61565b90505b6001811115610c79576f181899199a1a9b1b9c1cb0b131b232b360811b85600f1660108110610c2757634e487b7160e01b600052603260045260246000fd5b1a60f81b828281518110610c4b57634e487b7160e01b600052603260045260246000fd5b60200101906001600160f81b031916908160001a90535060049490941c93610c7281610edf565b9050610be8565b5083156103f25760405162461bcd60e51b815260206004820181905260248201527f537472696e67733a20686578206c656e67746820696e73756666696369656e74604482015260640161036c565b80356001600160a01b0381168114610cdf57600080fd5b919050565b600060208284031215610cf5578081fd5b6103f282610cc8565b600060208284031215610d0f578081fd5b5035919050565b60008060408385031215610d28578081fd5b82359150610d3860208401610cc8565b90509250929050565b60008060408385031215610d53578182fd5b50508035926020909101359150565b600060208284031215610d73578081fd5b81356001600160e01b0319811681146103f2578182fd5b76020b1b1b2b9b9a1b7b73a3937b61d1030b1b1b7bab73a1604d1b815260008351610dbc816017850160208801610eaf565b7001034b99036b4b9b9b4b733903937b6329607d1b6017918401918201528351610ded816028840160208801610eaf565b01602801949350505050565b6020815260008251806020840152610e18816040850160208701610eaf565b601f01601f19169190910160400192915050565b6020808252818101527f4f776e61626c653a2063616c6c6572206973206e6f7420746865206f776e6572604082015260600190565b60008219821115610e7457610e74610ef6565b500190565b6000816000190483118215151615610e9357610e93610ef6565b500290565b600082821015610eaa57610eaa610ef6565b500390565b60005b83811015610eca578181015183820152602001610eb2565b83811115610ed9576000848401525b50505050565b600081610eee57610eee610ef6565b506000190190565b634e487b7160e01b600052601160045260246000fdfe71840dc4906352362b0cdaf79870196c8e42acafade72d5d5a6d59291253ceb10ea61da3a8a09ad801432653699f8c1860b1ae9d2ea4a141fadfd63227717bc8a2646970667358221220f31baed231276599fd53f75a98be5b4a39f68fbffef41ec75c9ecafee9c5f3fd64736f6c63430008040033",
  "devdoc": {
    "kind": "dev",
    "methods": {
      "addMarketplace(address)": {
        "details": "Add an `_account` to the `MARKETPLACE` role."
      },
      "getRoleAdmin(bytes32)": {
        "details": "Returns the admin role that controls `role`. See {grantRole} and {revokeRole}. To change a role's admin, use {_setRoleAdmin}."
      },
      "getRoleMember(bytes32,uint256)": {
        "details": "Returns one of the accounts that have `role`. `index` must be a value between 0 and {getRoleMemberCount}, non-inclusive. Role bearers are not sorted in any particular way, and their ordering may change at any point. WARNING: When using {getRoleMember} and {getRoleMemberCount}, make sure you perform all queries on the same block. See the following https://forum.openzeppelin.com/t/iterating-over-elements-on-enumerableset-in-openzeppelin-contracts/2296[forum post] for more information."
      },
      "getRoleMemberCount(bytes32)": {
        "details": "Returns the number of accounts that have `role`. Can be used together with {getRoleMember} to enumerate all bearers of a role."
      },
      "grantRole(bytes32,address)": {
        "details": "Overload {grantRole} to track enumerable memberships"
      },
      "hasRole(bytes32,address)": {
        "details": "Returns `true` if `account` has been granted `role`."
      },
      "isMarketplace(address)": {
        "details": "Check if an `_account` is `MARKETPLACE`."
      },
      "owner()": {
        "details": "Returns the address of the current owner."
      },
      "removeMarketplace(address)": {
        "details": "Remove an `_account` from the `MARKETPLACE` role."
      },
      "renounceOwnership()": {
        "details": "Leaves the contract without owner. It will not be possible to call `onlyOwner` functions anymore. Can only be called by the current owner. NOTE: Renouncing ownership will leave the contract without an owner, thereby removing any functionality that is only available to the owner."
      },
      "renounceRole(bytes32,address)": {
        "details": "Overload {renounceRole} to track enumerable memberships"
      },
      "revokeRole(bytes32,address)": {
        "details": "Overload {revokeRole} to track enumerable memberships"
      },
      "supportsInterface(bytes4)": {
        "details": "See {IERC165-supportsInterface}."
      },
      "transferOwnership(address)": {
        "details": "Transfers ownership of the contract to a new account (`newOwner`). Can only be called by the current owner."
      }
    },
    "version": 1
  },
  "userdoc": {
    "kind": "user",
    "methods": {},
    "version": 1
  },
  "storageLayout": {
    "storage": [
      {
        "astId": 2021,
        "contract": "contracts/RoleManager.sol:RoleManager",
        "label": "_roles",
        "offset": 0,
        "slot": "0",
        "type": "t_mapping(t_bytes32,t_struct(RoleData)2016_storage)"
      },
      {
        "astId": 2322,
        "contract": "contracts/RoleManager.sol:RoleManager",
        "label": "_roleMembers",
        "offset": 0,
        "slot": "1",
        "type": "t_mapping(t_bytes32,t_struct(AddressSet)4871_storage)"
      },
      {
        "astId": 2588,
        "contract": "contracts/RoleManager.sol:RoleManager",
        "label": "_owner",
        "offset": 0,
        "slot": "2",
        "type": "t_address"
      },
      {
        "astId": 7178,
        "contract": "contracts/RoleManager.sol:RoleManager",
        "label": "governance",
        "offset": 0,
        "slot": "3",
        "type": "t_address"
      }
    ],
    "types": {
      "t_address": {
        "encoding": "inplace",
        "label": "address",
        "numberOfBytes": "20"
      },
      "t_array(t_bytes32)dyn_storage": {
        "base": "t_bytes32",
        "encoding": "dynamic_array",
        "label": "bytes32[]",
        "numberOfBytes": "32"
      },
      "t_bool": {
        "encoding": "inplace",
        "label": "bool",
        "numberOfBytes": "1"
      },
      "t_bytes32": {
        "encoding": "inplace",
        "label": "bytes32",
        "numberOfBytes": "32"
      },
      "t_mapping(t_address,t_bool)": {
        "encoding": "mapping",
        "key": "t_address",
        "label": "mapping(address => bool)",
        "numberOfBytes": "32",
        "value": "t_bool"
      },
      "t_mapping(t_bytes32,t_struct(AddressSet)4871_storage)": {
        "encoding": "mapping",
        "key": "t_bytes32",
        "label": "mapping(bytes32 => struct EnumerableSet.AddressSet)",
        "numberOfBytes": "32",
        "value": "t_struct(AddressSet)4871_storage"
      },
      "t_mapping(t_bytes32,t_struct(RoleData)2016_storage)": {
        "encoding": "mapping",
        "key": "t_bytes32",
        "label": "mapping(bytes32 => struct AccessControl.RoleData)",
        "numberOfBytes": "32",
        "value": "t_struct(RoleData)2016_storage"
      },
      "t_mapping(t_bytes32,t_uint256)": {
        "encoding": "mapping",
        "key": "t_bytes32",
        "label": "mapping(bytes32 => uint256)",
        "numberOfBytes": "32",
        "value": "t_uint256"
      },
      "t_struct(AddressSet)4871_storage": {
        "encoding": "inplace",
        "label": "struct EnumerableSet.AddressSet",
        "members": [
          {
            "astId": 4870,
            "contract": "contracts/RoleManager.sol:RoleManager",
            "label": "_inner",
            "offset": 0,
            "slot": "0",
            "type": "t_struct(Set)4570_storage"
          }
        ],
        "numberOfBytes": "64"
      },
      "t_struct(RoleData)2016_storage": {
        "encoding": "inplace",
        "label": "struct AccessControl.RoleData",
        "members": [
          {
            "astId": 2013,
            "contract": "contracts/RoleManager.sol:RoleManager",
            "label": "members",
            "offset": 0,
            "slot": "0",
            "type": "t_mapping(t_address,t_bool)"
          },
          {
            "astId": 2015,
            "contract": "contracts/RoleManager.sol:RoleManager",
            "label": "adminRole",
            "offset": 0,
            "slot": "1",
            "type": "t_bytes32"
          }
        ],
        "numberOfBytes": "64"
      },
      "t_struct(Set)4570_storage": {
        "encoding": "inplace",
        "label": "struct EnumerableSet.Set",
        "members": [
          {
            "astId": 4565,
            "contract": "contracts/RoleManager.sol:RoleManager",
            "label": "_values",
            "offset": 0,
            "slot": "0",
            "type": "t_array(t_bytes32)dyn_storage"
          },
          {
            "astId": 4569,
            "contract": "contracts/RoleManager.sol:RoleManager",
            "label": "_indexes",
            "offset": 0,
            "slot": "1",
            "type": "t_mapping(t_bytes32,t_uint256)"
          }
        ],
        "numberOfBytes": "64"
      },
      "t_uint256": {
        "encoding": "inplace",
        "label": "uint256",
        "numberOfBytes": "32"
      }
    }
  }
}